:020000040800F2
:1000000000200010B50D0008BD0C0008BF0C000852
:10001000C10C0008C30C0008C50C0008000000005B
:10002000000000000000000000000000C70C0008F5
:10003000C90C000800000000CB0C0008CD0C000823
:10004000D10D0008D50D0008D90D0008DD0D000800
:10005000E10D0008E50D0008750C0008E90D000829
:10006000ED0D0008F10D0008F50D0008F90D000870
:10007000FD0D0008010E0008050E0008090E00081D
:100080000D0E0008110E0008150E0008190E0008CC
:10009000A50800081D0E0008210E0008250E000806
:1000A000290E0008D50900082D0E0008310E0008A1
:1000B000650A0008450B0008350E0008390E0008D7
:1000C0003D0E0008410E0008450E0008490E0008CC
:1000D0004D0E00087D0B0008510E0008550E00085B
:1000E000590E00085D0E0008610E0008650E00083C
:1000F000690E00086D0E0008710E0008750E0008EC
:10010000790E0008750400087D0E0008810E0008B5
:10011000850E0008890E00088D0E0008910E00085B
:10012000950E0008190D0008990E00089D0E000894
:10013000A10E0008A50E0008A90E0008AD0E0008CB
:10014000B10E0008B50E0008B90E0008BD0E00087B
:10015000C10E0008C50E0008C90E0008CD0E00082B
:10016000D10E0008D50E0008D90E0008DD0E0008DB
:10017000E10E0008E50E0008E90E0008ED0E00088B
:10018000F10E0008F50E000830B403000022986854
:10019000400101D500200AE09868000101D5012046
:1001A00005E09868C00001D5022000E004200200AC
:1001B000D2B2042A00F084800200D2B212011A44A2
:1001C000D2F8802112F001020400E4B224011C44A0
:1001D000C4F880210A7A002A11D10200D2B2120199
:1001E0001A44D2F880210C684D7A55EA44552A43C6
:1001F0000400E4B224011C44C4F8802112E002008F
:10020000D2B212011A44D2F880414A680D7A55EAF6
:10021000C2054A7A15432C430200D2B212011A4495
:10022000C2F880418A7A12F00F028A720200D2B2BA
:1002300012011A44D2F88421120912010400E4B216
:1002400024011C44C4F884210200D2B212011A44D1
:10025000D2F884418A7A14430200D2B212011A44BD
:10026000C2F884418A7B4C7B240454EA02640A7BF2
:1002700054EA0224CA7A14430200D2B212011A4488
:10028000C2F888418A7C4C7C240454EA02640A7CCB
:1002900054EA0224CA7B14430200D2B212011A4467
:1002A000C2F88C410200D2B212011A44D2F8802165
:1002B00052F001020400E4B224011C44C4F880217D
:1002C000C0B230BC704710B4020000230800C0B2B6
:1002D000002803D002280BD005D30EE09468DFF885
:1002E0007C0104400AE09468DFF87401044005E0F2
:1002F0009468DFF87001044000E00024200000282A
:1003000016D0DFF86431C01A14D0801E18D0DFF880
:100310005C31C01A10D04FF40073C01A12D0DFF84D
:100320005031C01A0AD05FF40033C01A0CD00DE06F
:1003300002200CE000200AE0002008E0002006E097
:10034000012004E0012002E0012000E00020C0B212
:1003500010BC70470B00DBB21B010344D3F8B03173
:1003600013F004031372137A002B08D10B00DBB2D5
:100370001B010344D3F8B0315B0D136007E00B00A1
:10038000DBB21B010344D3F8B031DB0853600B0030
:10039000DBB21B010344D3F8B03113F002035372F4
:1003A0000B00DBB21B010344D3F8B43113F00F038D
:1003B00093720B00DBB21B010344D3F8B4311B0A68
:1003C000D3740B00DBB21B010344D3F8B831D372F2
:1003D0000B00DBB21B010344D3F8B8311B0A1373C3
:1003E0000B00DBB21B010344D3F8B8311B0C537371
:1003F0000B00DBB21B010344D3F8B8311B0E93731F
:100400000B00DBB21B010344D3F8BC31D3730B00E8
:10041000DBB21B010344D3F8BC311B0A13740B007D
:10042000DBB21B010344D3F8BC311B0C53740B002B
:10043000DBB21B010344D3F8BC311B0E93740B00D9
:10044000DBB2002B04D1C36853F02003C36003E088
:10045000036953F0200303617047000003000004A8
:10046000000300080000031001000004FD00000468
:1004700000FD000880B500F001F801BD80B54FF423
:10048000807000F0FBF8002833D0DFF8A801007876
:10049000012815D1DFF8A801002101600C2141607D
:1004A000402181600021C1604FF48061016100F052
:1004B000D1F80C2000F08AF8DFF87411087003E01E
:1004C0000020DFF86C110870DFF87801016851F442
:1004D00080710160DFF864110A68DFF86C01024086
:1004E0000A600120DFF850110870DFF8440100783D
:1004F0006BE0022000F0C2F800280FD0022000F0CC
:10050000C8F8DFF838110A68DFF83C0102400A60D9
:100510000220DFF81C110870022056E0082000F0CD
:10052000ADF800280FD0082000F0B3F8DFF80C1168
:100530000A68DFF8140102400A600420DFF8F010B6
:100540000870042041E0202000F098F800280FD027
:10055000202000F09EF8DFF8E4100A68DFF8E800D9
:1005600002400A600620DFF8C810087006202CE060
:10057000102000F083F800280FD0102000F089F838
:10058000DFF8B8100A68DFF8C00002400A600520F2
:10059000DFF89C100870052017E04FF4007000F0A1
:1005A0006DF8002810D04FF4007000F072F8DFF8FA
:1005B0008C100A68DFF8900002400A600720DFF81C
:1005C00070100870072000E0002002BD38B504005C
:1005D000DFF858000068050015F0450FF8D004203A
:1005E00000F04CF8002804D0042000F052F803205A
:1005F0001BE0012000F042F8002804D0012000F0A8
:1006000048F8012011E0DFF8440000682100C9B279
:10061000884201D0102008E040F2FF5000F039F885
:10062000DFF82C00006810F0080032BD342C0140C7
:100630002600002025000020270000203C2C01403F
:1006400000000020382C0140C53CFFFF102C014069
:10065000142C014030B4002201680F4B19600F4C7C
:100660002368DB0ADB02456881680D43C1680D43DE
:1006700001690D432B43236030BC70470100002209
:1006800007480068084201D0012000E00020C0B205
:100690007047044908607047082C01400C2C014049
:1006A000342C0140382C014080B53C48016851F49D
:1006B000700101603A49086850F0010008600020AC
:1006C000384A10600A68384802400A603748384A99
:1006D0001060086830F48020086000203549086008
:1006E00000F005F85FF000603349086001BD82B09A
:1006F00000200190002000902949086850F48030C3
:100700000860086810F4003000900198401C0190C7
:100710000098002803D10198B0F5A04FF1D10868E6
:10072000800302D50120009001E000200090009895
:1007300001282FD12148026852F0805202602048DF
:10074000026852F440420260164802680260026881
:1007500052F400420260026852F4A0520260194A48
:10076000134B1A600A6852F080720A600A6892019C
:10077000FCD540F20571144A1160016889088900AE
:100780000160016851F002010160016811F00C0183
:100790000829FAD102B070470000000088ED00E09F
:1007A0000038024008380240FFFFF6FE10300024F7
:1007B000043802400C38024008ED00E040380240A6
:1007C0000070004019544007003C0240F0B5002280
:1007D000002300240025102D5CD2012616FA05F214
:1007E00013000A681A4014009C4251D10327026882
:1007F000AC465FFA8CFC5FEA4C0C17FA0CFC32EA50
:100800000C020260D0F800C091F804E02A00D2B2D5
:1008100052001EFA02FE5EEA0C0CC0F800C00A7913
:10082000012A02D00A79022A22D18268AC465FFAF4
:100830008CFC5FEA4C0C17FA0CFC32EA0C0282606A
:10084000D0F808C091F805E02A00D2B252001EFA92
:1008500002FE5EEA0C0CC0F808C04268AE4032EA04
:100860000606466042688E79AE40B6B232434260B8
:10087000C6682A00D2B25200974036EA0707C7601E
:10088000C668CF792A00D2B2520097403E43C66074
:100890006D1CA0E7F0BD43690A0092B2534043616A
:1008A0007047000000B585B06A4600212948FFF76F
:1008B00051FD08210DF10B0000F002F805B000BD5C
:1008C0002DE9F04385B004000D00002012210091B5
:1008D0001221019100218DF8081000218DF80910D6
:1008E0008DF80A50002630002900C9B280B289B2C2
:1008F000884209D2300080B2205C6946320092B250
:100900001144C872761CEEE7DFF848906946484605
:10091000FFF73AFC07005FF000083900C9B248460B
:10092000FFF7D1FC002808D1404680B240F6FF71A5
:10093000884202DA18F10108EFE7404680B240F63B
:10094000FF71884201DB012000E0002005B0BDE816
:10095000F08300000064004010B4020052B2002A8C
:1009600009D50A01134B040064B214F00F042344A8
:1009700003F8042C04E00A010F4B040064B21A557A
:1009800010BC704710B50400601EB0F1807F01D329
:1009900001200EE0601E094908600F215FF0FF3062
:1009A000FFF7DAFF002006490860072005490860C4
:1009B000002010BD18ED00E000E400E014E000E0CD
:1009C00018E000E010E000E080B5A820FFF7DAFFB3
:1009D00001BD000038B5114C0121200000F026F8BF
:1009E000012818D10E4D288840F2E731884207DBF4
:1009F0004FF400410B48FFF74EFF0020288002E033
:100A00002888401C288008480178491C0170012171
:100A1000200000F022F831BD00000000000001407D
:100A20001E0000200018024028000020F0B4020040
:100A3000002300260024178A0F4095890D403800B6
:100A400080B2002805D0280080B2002801D0012003
:100A500000E00020C0B2F0BC70470A0092B2D2435E
:100A60000282704780B502215FF08040FFF7DEFF11
:100A7000012808D10C480178491C017002215FF05F
:100A80008040FFF7EAFF01215FF08040FFF7CEFFD3
:100A9000012808D105480188491C018001215FF027
:100AA0008040FFF7DAFF01BD200000201C0000207D
:100AB000CA05D20D828070478088C005C00D70477E
:100AC00002000023080080B2B0F5007F10880842C1
:100AD00001D0012000E00020C0B270470A0092B2AD
:100AE00092050A0092B2D24302807047E0B501211C
:100AF000402000F017F801208DF8040000208DF848
:100B000006004FF40040009000208DF807000320FD
:100B10008DF8050069460248FFF758FE07BD00BF83
:100B2000001802400A00D2B2002A04D0044A136816
:100B30000343136003E0024A136883431360704762
:100B40003038024010B50A4C01212000FFF76EFF3B
:100B500001280CD14FF400410648FFF79CFE0648DF
:100B60000178491C017001212000FFF776FF10BDBC
:100B700000040040001802402400002070B50C4D15
:100B800040F2255631002800FFF79AFF00280DD0CB
:100B900031002800FFF7A2FF2800FFF78DFF0400B7
:100BA0002100C9B289B22800FFF782FF70BD0000A2
:100BB00000100140074A904201D2074A00E0074A6C
:100BC0008B0003D5064B0B40D36002E0044B0B4077
:100BD000936070471064024000600240006402406D
:100BE0007D0F7D0F80B500F015F802000023DB4378
:100BF0001068984204D011000220ABBE00201060A3
:100C00005068984204D0111D0220ABBE00205060F5
:100C100001BD0000014870470000000014000020E2
:100C200030B450F8041B79B10268436802440830BC
:100C3000DC0744BFA9F10104E31852F8045B43F850
:100C4000045B091FF9D1ECE730BC704710B50749C8
:100C500079441831064C7C44163404E00A68081DB7
:100C6000114488470146A142F8D110BD9800000008
:100C7000A800000080B5012000F00EF8012806D180
:100C8000012000F014F803480178491C017001BDEF
:100C90000000000022000020010000220648006839
:100CA000084201D0012000E00020C0B27047024994
:100CB0000860704700000000143C01407047FEE7E8
:100CC000FEE7FEE7FEE770477047704780B54FF4D8
:100CD00000410248FFF7DFFD01BD0000001802409F
:100CE0004EF68851CEF20001086840F470000860AA
:100CF000BFF34F8FBFF36F8F4FF00070E1EE100A1C
:100D0000704700001DFFFFFF2C000000EC010000F9
:100D1000000000200000000080B505480178491C53
:100D2000017004490148FFF745FF01BD28640240F6
:100D3000210000200008001080B5FFF745FE4FF4A9
:100D4000A06000F009F8FFF7D1FE02480178491CC5
:100D50000170FAE72300002002490143024A1160B2
:100D6000704700000000FA050CED00E000F00DF8FF
:100D7000002801D0FFF76AFFAFF300800020AFF337
:100D80000080FFF7D9FF00F002F80120704700F063
:100D900001B800000746384600F002F8FBE7000003
:100DA00080B5FFF71FFF024A11001820ABBEFBE71A
:100DB000260002000148804701480047A9060008B4
:100DC000C50D0008AFF30080FFF78AFFFFF7CEFFE5
:100DD000FFF7FEBFFFF7FEBFFFF7FEBFFFF7FEBF47
:100DE000FFF7FEBFFFF7FEBFFFF7FEBFFFF7FEBF37
:100DF000FFF7FEBFFFF7FEBFFFF7FEBFFFF7FEBF27
:100E0000FFF7FEBFFFF7FEBFFFF7FEBFFFF7FEBF16
:100E1000FFF7FEBFFFF7FEBFFFF7FEBFFFF7FEBF06
:100E2000FFF7FEBFFFF7FEBFFFF7FEBFFFF7FEBFF6
:100E3000FFF7FEBFFFF7FEBFFFF7FEBFFFF7FEBFE6
:100E4000FFF7FEBFFFF7FEBFFFF7FEBFFFF7FEBFD6
:100E5000FFF7FEBFFFF7FEBFFFF7FEBFFFF7FEBFC6
:100E6000FFF7FEBFFFF7FEBFFFF7FEBFFFF7FEBFB6
:100E7000FFF7FEBFFFF7FEBFFFF7FEBFFFF7FEBFA6
:100E8000FFF7FEBFFFF7FEBFFFF7FEBFFFF7FEBF96
:100E9000FFF7FEBFFFF7FEBFFFF7FEBFFFF7FEBF86
:100EA000FFF7FEBFFFF7FEBFFFF7FEBFFFF7FEBF76
:100EB000FFF7FEBFFFF7FEBFFFF7FEBFFFF7FEBF66
:100EC000FFF7FEBFFFF7FEBFFFF7FEBFFFF7FEBF56
:100ED000FFF7FEBFFFF7FEBFFFF7FEBFFFF7FEBF46
:100EE000FFF7FEBFFFF7FEBFFFF7FEBFFFF7FEBF36
:100EF000FFF7FEBFFFF7FEBF00000000000000008C
:100F0000000000000000000000000000FFFFFFFFE5
:100F1000FFFFFFFF000000000000000000000000D5
:040F200000000000CD
:0400000508000DC51D
:00000001FF
