:020000040800F2
:1000000000200010D52100080D1F00080F1F000858
:10001000111F0008131F0008151F00080000000032
:10002000000000000000000000000000171F000892
:10003000191F000800000000F30D00081B1F000836
:10004000F5210008F9210008FD210008012200081F
:100050000522000809220008B92000080D22000826
:100060001122000815220008192200081D2200088C
:100070002122000825220008292200082D2200083C
:100080003122000835220008392200083D220008EC
:10009000251C0008412200084522000849220008CA
:1000A0004D220008311E0008512200085522000888
:1000B000C11E0008891F0008592200085D2200089F
:1000C0006122000865220008692200086D220008EC
:1000D00071220008C11F000875220008792200085B
:1000E0007D2200088122000885220008892200085C
:1000F0008D2200089122000895220008992200080C
:100100009D220008BD160008A1220008A5220008B3
:10011000A9220008AD220008B1220008B52200087B
:10012000B92200084D210008BD220008C1220008A4
:10013000C5220008C9220008CD220008D1220008EB
:10014000D5220008D9220008DD220008E12200089B
:10015000E5220008E9220008ED220008F12200084B
:10016000F5220008F9220008FD22000801230008FA
:1001700005230008092300080D23000811230008A7
:10018000152300081923000880B500F0B9FB00F022
:1001900055F900F07EF900F0DAF900F01DF900F0F1
:1001A000C9FC00F00FFD00F096F900F0B2F900F084
:1001B000BAFB00F033FD01BD10B50024DFF8D40612
:1001C0000078012833D100F0F3FD0400DFF870154A
:1001D0000878002802D00878401E087008780028A7
:1001E00022D1DFF86005007800281DD100F01AFA4E
:1001F000DFF8A406DFF8A416DFF8A4260B7852F87F
:10020000232002600978DFF89C26127891420BD0F7
:100210000168C96B491C0068C163DFF88C0601687E
:10022000491C016000F0E1FD200000F0C5FD10BD9B
:1002300080B5DFF860060078002815D100F0F2F9EB
:10024000DFF858060178DFF85C261170DFF84816F1
:10025000DFF84C26007852F8200008600868DFF8C4
:100260002C16086000F0ABFD01BDF8B5002700F0CA
:1002700060FC00F09DFD0600DFF83C060168491CAB
:100280000160300000F098FDDFF8080600780128D2
:100290005CD1DFF828060178002903D0022907D0B5
:1002A00003D30AE0012005000BE00020050008E070
:1002B00001210D000121017003E001210D00002149
:1002C00001702800C0B2002840D0DFF8F4050068B3
:1002D000040094F836003F2838D000F069FD06008D
:1002E000206B00282DD0206B401E2063206B00283F
:1002F00027D194F8340010F0370F09D094F8340067
:1003000010F0C80084F83400012084F8350002E0C1
:10031000002084F8350094F83400000711D4DFF889
:10032000A4150A7894F83A0002430A70DFF8981589
:1003300094F838000A5C94F83900024394F83800C5
:100340000A546469300000F037FDC2E7F1BD704720
:1003500010B490F838301A00D2B20A44D47A90F827
:10036000392094431A00D2B20A44D4721A00D2B28D
:100370000A44D27A002A04D18C7A90F83A20944325
:100380008C720022C26110BC7047F0B402000B00F6
:1003900092F8384092F83A5092F839601F00386865
:1003A000002817D02100C9B20144C97AB143A4463C
:1003B0005FFA8CFC84448CF80B102100C9B2014414
:1003C000C97A002902D1817AA94381723F1D396817
:1003D0000800E5E7F0BC7047F8B5DFF8F4744FF4B7
:1003E000F071380000F0EAF80021080080B213280C
:1003F00014D2481C040018200A0092B242433A4426
:100400001500220092B200FB02F0384406000020E2
:1004100028706E6094A06861491CE6E70A0092B2F9
:100420001820424307EB02000022027000224260C3
:100430008DA24261DFF89C241760F1BD0020DFF837
:10044000781408600020BE4908700020BD4908707B
:100450000020DFF8841408700020DFF838140870DA
:100460000020DFF8441408600020DFF84014086022
:100470000020DFF8681408600020DFF834140860FA
:100480000020DFF8301408700020DFF854140870E2
:1004900070470020DFF82C14087000200100C9B25A
:1004A000082907D20021DFF820240300DBB2D15451
:1004B000401CF3E70021DFF8EC2311700021DFF886
:1004C000DC2311700021DFF8D02311600021DFF858
:1004D000BC231160704780B586B0DFF808040321A3
:1004E0000491002103918021029101904FF6FF7148
:1004F00000913F2310F5FE7200210FF24D1000F025
:1005000007FD05AADFF8E0133F2000F018FE07B052
:1005100000BD80B586B0DFF8D4030321049100212B
:1005200003918021029101904FF6FE7100913E23CC
:1005300010F5FE7200210FF2351000F0E9FC05AA5B
:10054000DFF8AC133E2000F0FAFD07B000BDF8B5AF
:10055000DFF8A0734FF4F261380000F02FF84FF489
:100560008071DFF83C0300F029F800210800C0B2D8
:10057000152812D2481C040058200A00D2B2424367
:100580003A4415002200D2B200FB02F038440600C3
:100590006E6135A02865491CE8E70A00D2B25820F0
:1005A000424307EB0200002242612FA202650022B3
:1005B000C34B1A60DFF840231760F1BD0A0092B206
:1005C000002A04D000220270401C491EF6E7704742
:1005D00038B5002500F0ECFB0400594800780028ED
:1005E0001CD158480078002818D100F01BF8AA4800
:1005F000AA49AB4A0B7852F8232002600978A94A2D
:10060000127891420AD00168C96B491C0068C16325
:10061000A5480168491C016000F0E3FB200000F0E0
:10062000CBFB31BD10B4A949A6480078085C020094
:10063000D2B2D200A44B0400E4B21B5DC95C5118D5
:10064000964A117010BC704738B50400002500F0C0
:10065000AFFB050095480168491C0160280000F0C7
:10066000ABFB00F063F9F2E73F0000002DE9F04139
:10067000050000248F480078002803D1142000F0E2
:1006800069FEF7E78A4E30686421B0FBF1F0306014
:100690003068002805D1002098490870FF2000F03C
:1006A000D5FD00F085FB0700DFF80082316864208B
:1006B0004143C8F80010380000F07EFB00F078FBE2
:1006C0000700864CD8F8000020600020C8F8000021
:1006D000380000F071FB20683168B0FBF1F0D0F118
:1006E00064008649087000F023F900F004F80A203D
:1006F00000F030FEE2E77CB500263000C0B24028B2
:100700001CD269463000C0B200F052FD050028003E
:10071000C0B2002810D162483100C9B250F821009F
:100720000400002C08D0012C06D0A068E16800EB82
:100730008100A0640198E064761CDEE773BD0000D0
:1007400082130020831300202DE9FE4F06000D9F29
:100750000E9D5FF0000900F02BFB804666480468A0
:10076000002C00F08D8061690160404600F024FBA0
:100770000098206084F83660002084F8340000205F
:1007800084F835000020206367600C98E0600198D1
:10079000A0602582BDF808006082002084F83B003C
:1007A0003000C0B2C00884F8380016F0070084F8A2
:1007B0003700012194F8380011FA00F084F83A006B
:1007C00094F83700814084F839100020E06100205F
:1007D00020620020A062002060620020E063002010
:1007E0006064002020640020A0640020E06428A051
:1007F00020655FF000094846C0B2002808D10020FB
:100800004946C9B204EB8101486519F10109F2E7D3
:10081000200000F08DF900F0CBFA8246204831002C
:10082000C9B240F82140504600F0C6FA200000F05E
:100830007BF800F0BDFA834621490868606100201A
:10084000A0610868002801D0086884610C601D4917
:100850000A7894F83A0002430A701B4994F8380069
:100860000A5C94F83900024394F838000A541A4894
:100870000178491C0170584600F09EFA002003E000
:10088000404600F099FA4220BDE8FE8F5C1300203C
:100890003F00000087130020641300208513002010
:1008A00078110020841300204413002058130020E6
:1008B00050130020811300207013002089130020A2
:1008C00068130020861300203C130020141A00082F
:1008D000980D002048130020881300205413002096
:1008E0008A13002098090020B421000898070020EE
:1008F000C42100080800002060130020801300209D
:100900006C4A11008020002804D0401E00230B6098
:10091000091DF8E7684B12F500721A601A68D208D0
:10092000D2001A6070477047704770477047704731
:10093000704730B40400101DC008C000001F5FF0F5
:1009400080750560001F0460001F5C4D0560001F7E
:100950005FF012350560001F5FF003350560001F72
:100960005FF002350560001F5FF001350560001F74
:100970000160001F5FF011350560001F5FF010354A
:100980000560001F5FF009350560001F5FF0083546
:100990000560001F5FF007350560001F5FF006353A
:1009A0000560001F5FF005350560001F5FF004352E
:1009B00005605D0768D5001F5FF000750560001FCA
:1009C0003F4D0560001F3F4D0560001F3E4D056017
:1009D000001F3E4D0560001F3D4D0560001F3D4D51
:1009E0000560001F3C4D0560001F3C4D0560001F69
:1009F0003B4D0560001F3B4D0560001F3A4D0560F3
:100A0000001F3A4D0560001F394D0560001F394D2C
:100A10000560001F384D0560001F5FF083450560CD
:100A2000001F364D0560001F354D0560001F354D18
:100A30000560001F344D0560001F344D0560001F28
:100A4000334D0560001F334D0560001F5FF0824588
:100A50000560001F304D0560001F304D0560001F10
:100A60002F4D0560001F5FF081450560001F2D4D73
:100A70000560001F5FF080450560001F5FF07E5538
:100A80000560001F0025056030BC704780B5264812
:100A90000168097C490703D50068006800F072F915
:100AA00022480168097C490703D50068006800F006
:100AB00076F901BD980B002074130020FF12000886
:100AC0000000F8410000F0410000E8410000E04172
:100AD0000000D8410000D0410000C8410000C041E2
:100AE0000000B8410000B0410000A8410000A04152
:100AF00000009841000090410000884100007041D2
:100B000000006041000050410000404100003041C1
:100B100000002041000010410000E0400000C04003
:100B20000000A040000040405C130020641300203F
:100B300070477047F8B5174F50213800FFF73EFD5A
:100B40000020010089B2042912D2411C0C000100CE
:100B500089B2090139440D00210089B209013944E3
:100B60000E00002129706E6008A1E960401CE8E7D2
:100B7000010089B20901394400220A7000224A604A
:100B800002A2CA60024A1760F1BD00003F000000E7
:100B90004C130020D812002030B442680168002AAB
:100BA00007D1C3681C006160002906D000234B6098
:100BB00003E01160002900D04A60836800259D622F
:100BC00030BC7047F8B5144F60213800FFF7F6FCD1
:100BD0000021080080B2032810D2481C040018200D
:100BE0000A0092B242433A441500220092B200FB3E
:100BF00002F0384406002E60491CEAE70A0092B26F
:100C00001820424307EB020000220260014A1760ED
:100C1000F1BD00006C130020781200202DE9F84F80
:100C20002A4800902A4800902A4800902A480090BC
:100C30002A4800902A4800902A4800902A480090AC
:100C40002A4800902A4800902A4800902A4800909C
:100C50002A4800902A4800902A4800902A4800908C
:100C60002A4800902A4800902A4800902A4800907C
:100C70002A4800902A4800902A4800902A4800906C
:100C80002A4800902A4800902A4800902A4800905C
:100C90002A4800902A4800902A4800902A4800904C
:100CA0002A482B492B4A2C4B2C4C2D4D2D4E2E4F88
:100CB000DFF8B8C0DFF8B8E0DFF8B880DFF8B89048
:100CC000DFF8B8A0DFF8B8B0BDE8F18F4821000820
:100CD000F02100089E2100081C2300089221000832
:100CE0001E230008202300082223000824230008D4
:100CF00026230008282300082A2300082C230008A4
:100D00002E23000830230008322300083423000873
:100D100036230008382300083A2300083C23000843
:100D20003E23000840230008422300084423000813
:100D300046230008482300084A2300084C230008E3
:100D40004E230008502300085223000854230008B3
:100D500056230008582300085A2300085C23000883
:100D60005E23000860230008622300086623000851
:100D7000682300086A2300086C2300086E2300081B
:100D800082230008EFF3098141B1F1EE101A40F817
:100D9000041D20ED200A27490A6810607047B0EC56
:100DA000200A02C8E1EE101A23490A681060704751
:100DB000EFF3108072B6704780F3108870471F48B9
:100DC000FF210170002080F309881D48016881F32C
:100DD00008881C48012101701B481C49016062B64B
:100DE000FEE7194819490160704717481749016023
:100DF000704772B6EFF3098028B1203880E8F00F11
:100E00000C490968086000B5114880475DF804EB9B
:100E1000104811490A780270064807490A680260BA
:100E2000106890E8F00F203080F309884EF0F40E3F
:100E300062B670475C1300206413002022ED00E0CE
:100E4000741300208713002004ED00E00000001060
:100E50008D0A000884130020851300202DE9FE4F21
:100E600004000D0016001F005FF00009FFF7A0FF4F
:100E70008046DFF8B4040078002804D04046FFF72D
:100E80009BFF3C2042E0DFF88C943800C0B259F858
:100E90002000002836D101203900C9B249F82100CC
:100EA0004046FFF789FF0023320029002000FFF7AA
:100EB00040FD82460020029000200190002000901A
:100EC0000023002251463800C0B2FFF73DFC8346A4
:100ED0005846C0B2002807D1DFF84804007801283E
:100EE0000DD1FFF775FB0AE0FFF762FF8046002097
:100EF0003900C9B249F821004046FFF75DFF584666
:100F0000C0B203E04046FFF757FF2820BDE8FE8F40
:100F10002DE9F74F84B01D00119E129F149C5FF0C5
:100F20000009FFF745FF8046DFF8FC030078002842
:100F300004D04046FFF740FF3C204AE0DFF8D4935E
:100F40002800C0B259F8200000283ED10120290015
:100F5000C9B249F821004046FFF72EFF220092B2A5
:100F60003900300000F0EAF923009BB2069A059997
:100F70000498FFF7DEFC8246200080B202901398AE
:100F800001900097BDF84030320051462800C0B2B1
:100F9000FFF7DAFB83465846C0B2002807D1DFF8D6
:100FA0008403007801280DD1FFF712FB0AE0FFF758
:100FB000FFFE804600202900C9B249F821004046C2
:100FC000FFF7FAFE5846C0B203E04046FFF7F4FED2
:100FD000282007B0BDE8F08F2DE9F0470600002477
:100FE000DFF844030078002801D04020A5E030005D
:100FF000C0B23F2801D13E209FE0FFF7D9FE070095
:101000003000C0B2FF2805D1DFF80C03006890F86B
:1010100036000600DFF8FC823000C0B258F82040ED
:10102000002C04D13800FFF7C7FE432085E0012CD7
:1010300004D13800FFF7C0FE3D207EE0DFF8DC126F
:1010400094F838000A5C94F83900824394F8380028
:101050000A5494F83800085C002806D1DFF8C01262
:101060000A7894F83A0082430A70E069002803D0B5
:10107000E1692000FFF76CF9206A002803D0216A9B
:101080002000FFF782F9A56A002D02D02800FFF7A3
:1010900083FD00202063002084F83400002084F8C1
:1010A0003500DFF888A29AF80000FF2804D09AF8EB
:1010B0000000401C8AF800003800FFF77DFEFFF7B3
:1010C00046F9FFF775FE81469AF80000002804D023
:1010D0009AF80000401E8AF800002000FFF725FC67
:1010E000DFF84C020178491E017000203100C9B2BE
:1010F00048F82100A069002807D1002061698861B3
:101100006069DFF83012086005E06069A169486134
:10111000A06961698861DFF820020168616104608B
:1011200049A020654846FFF747FEDFF8F801007840
:10113000012801D1FFF74CFA0020BDE8F0872DE926
:10114000F04105000E0017000024DFF8DC010078F4
:10115000002802D01220387028E0FFF729FE8046D0
:101160002800C0B2FF2805D1DFF8AC01006890F874
:1011700036000500DFF89C012900C9B250F8214073
:10118000002C05D14046FFF717FE432038700DE0D4
:10119000012C05D14046FFF70FFE4320387005E0D3
:1011A00026654046FFF708FE00203870BDE8F08154
:1011B0002DE9F04705000E000024002030600020DB
:1011C0007060FFF7F5FD07002800C0B2FF2804D1CA
:1011D0005148006890F8360005004E482900C9B211
:1011E00050F82140002C04D13800FFF7E5FD4320E2
:1011F00026E0012C04D13800FFF7DEFD43201FE07C
:10120000207CC00704D43800FFF7D6FD452017E046
:101210005FF00008D4F80C90D4F808A03800FFF76D
:10122000CBFD504610F1040A0068002802D118F1E5
:101230000108F6E7C6F80080B9EB080070600020EE
:10124000BDE8F087000000003F0000002DE9F041FC
:1012500005000024FFF7ACFD06002800C0B2FF28FF
:1012600006D12D48006890F83600050001270AE0F5
:1012700028002949096891F83610C0B2884201D186
:10128000012700E0002723482900C9B250F8214077
:10129000002C04D13000FFF78FFD48202DE0012CF9
:1012A00004D13000FFF788FD432026E094F8388011
:1012B0001A494046C0B20A5C94F83900824340465D
:1012C000C0B20A544046C0B2085C002805D1144997
:1012D0000A7894F83A0082430A7094F8340050F087
:1012E000080084F834003000FFF766FD3800C0B213
:1012F000012801D1FFF76CF90020BDE8F08180B52D
:1013000005480068FFF713FBFF20FFF765FE01BDEE
:1013100000000000781100205C1300203C13002026
:1013200086130020871300208213002083130020DF
:10133000881300206813002060130020D30708D50D
:10134000930706D5002904D0491E00230360001D21
:10135000F8E7704770B504000026184800780028A8
:101360002BD117480078002827D1002C25D0FFF773
:101370001FFD06001349086890F838000500124A5E
:101380002800C0B2135C086890F839008343280035
:10139000C0B213542800C0B2105C002806D10B4A1A
:1013A0001378086890F83A00834313700868046360
:1013B0003000FFF701FDFFF70BF970BD821300202D
:1013C000831300205C1300203C13002086130020B0
:1013D00030B4030000229868400101D500200AE0E3
:1013E0009868000101D5012005E09868C00001D58A
:1013F000022000E004200200D2B2042A00F084801F
:101400000200D2B212011A44D2F8802112F0010275
:101410000400E4B224011C44C4F880210A7A002AA2
:1014200011D10200D2B212011A44D2F880210C6804
:101430004D7A55EA44552A430400E4B224011C4481
:10144000C4F8802112E00200D2B212011A44D2F88C
:1014500080414A680D7A55EAC2054A7A15432C4301
:101460000200D2B212011A44C2F880418A7A12F004
:101470000F028A720200D2B212011A44D2F88421F9
:10148000120912010400E4B224011C44C4F88421AE
:101490000200D2B212011A44D2F884418A7A14436B
:1014A0000200D2B212011A44C2F884418A7B4C7BFA
:1014B000240454EA02640A7B54EA0224CA7A1443DC
:1014C0000200D2B212011A44C2F888418A7C4C7CD4
:1014D000240454EA02640A7C54EA0224CA7B1443BA
:1014E0000200D2B212011A44C2F88C410200D2B2F8
:1014F00012011A44D2F8802152F001020400E4B231
:1015000024011C44C4F88021C0B230BC704710B420
:10151000020000230800C0B2002803D002280BD02C
:1015200005D30EE09468DFF87C0104400AE094687B
:10153000DFF87401044005E09468DFF870010440AE
:1015400000E000242000002816D0DFF86431C01A23
:1015500014D0801E18D0DFF85C31C01A10D04FF4C0
:101560000073C01A12D0DFF85031C01A0AD05FF4ED
:101570000033C01A0CD00DE002200CE000200AE07D
:10158000002008E0002006E0012004E0012002E045
:10159000012000E00020C0B210BC70470B00DBB29D
:1015A0001B010344D3F8B03113F004031372137A10
:1015B000002B08D10B00DBB21B010344D3F8B03180
:1015C0005B0D136007E00B00DBB21B010344D3F893
:1015D000B031DB0853600B00DBB21B010344D3F8CE
:1015E000B03113F0020353720B00DBB21B01034452
:1015F000D3F8B43113F00F0393720B00DBB21B016D
:101600000344D3F8B4311B0AD3740B00DBB21B01C3
:101610000344D3F8B831D3720B00DBB21B0103448F
:10162000D3F8B8311B0A13730B00DBB21B01034460
:10163000D3F8B8311B0C53730B00DBB21B0103440E
:10164000D3F8B8311B0E93730B00DBB21B010344BC
:10165000D3F8BC31D3730B00DBB21B010344D3F8C6
:10166000BC311B0A13740B00DBB21B010344D3F81B
:10167000BC311B0C53740B00DBB21B010344D3F8C9
:10168000BC311B0E93740B00DBB2002B04D1C3687A
:1016900053F02003C36003E0036953F020030361A8
:1016A000704700000300000400030008000003105E
:1016B00001000004FD00000400FD000880B500F0FA
:1016C00001F801BD80B54FF4807000F0FBF80028F0
:1016D00033D0DFF8A8010078012815D1DFF8A80180
:1016E000002101600C214160402181600021C16026
:1016F0004FF48061016100F0D1F80C2000F08AF80D
:10170000DFF87411087003E00020DFF86C11087036
:10171000DFF87801016851F480710160DFF864112D
:101720000A68DFF86C0102400A600120DFF85011FE
:101730000870DFF8440100786BE0022000F0C2F886
:1017400000280FD0022000F0C8F8DFF838110A682E
:10175000DFF83C0102400A600220DFF81C1108702B
:10176000022056E0082000F0ADF800280FD0082035
:1017700000F0B3F8DFF80C110A68DFF8140102403A
:101780000A600420DFF8F0100870042041E02020F7
:1017900000F098F800280FD0202000F09EF8DFF825
:1017A000E4100A68DFF8E80002400A600620DFF86B
:1017B000C810087006202CE0102000F083F80028E4
:1017C0000FD0102000F089F8DFF8B8100A68DFF8B1
:1017D000C00002400A600520DFF89C100870052058
:1017E00017E04FF4007000F06DF8002810D04FF4AF
:1017F000007000F072F8DFF88C100A68DFF89000D3
:1018000002400A600720DFF870100870072000E02F
:10181000002002BD38B50400DFF85800006805005C
:1018200015F0450FF8D0042000F04CF8002804D043
:10183000042000F052F803201BE0012000F042F8E1
:10184000002804D0012000F048F8012011E0DFF862
:10185000440000682100C9B2884201D0102008E08D
:1018600040F2FF5000F039F8DFF82C00006810F06B
:10187000080032BD342C01408D1300208C13002051
:101880008E1300203C2C014028130020382C0140EE
:10189000C53CFFFF102C0140142C014030B4002245
:1018A00001680F4B19600F4C2368DB0ADB024568A7
:1018B00081680D43C1680D4301690D432B432360CB
:1018C00030BC70470100002207480068084201D080
:1018D000012000E00020C0B2704704490860704752
:1018E000082C01400C2C0140342C0140382C0140C4
:1018F00080B53C48016851F4700101603A490868BC
:1019000050F0010008600020384A10600A6838482A
:1019100002400A603748384A1060086830F4802076
:10192000086000203549086000F005F85FF00060AD
:101930003349086001BD82B0002001900020009072
:101940002949086850F480300860086810F40030B5
:1019500000900198401C01900098002803D1019844
:10196000B0F5A04FF1D10868800302D501200090A6
:1019700001E000200090009801282FD12148026842
:1019800052F0805202602048026852F440420260E5
:10199000164802680260026852F40042026002685F
:1019A00052F4A0520260194A134B1A600A6852F0AE
:1019B00080720A600A689201FCD540F20571144AEF
:1019C00011600168890889000160016851F0020115
:1019D0000160016811F00C010829FAD102B07047CA
:1019E0000000000088ED00E00038024008380240A6
:1019F000FFFFF6FE10300024043802400C3802408D
:101A000008ED00E0403802400070004019544007E3
:101A1000003C024000000100020001000300010040
:101A200002000100040001000200010003000100A7
:101A30000200010005000100020001000300010096
:101A40000200010004000100020001000300010087
:101A50000200010006000100020001000300010075
:101A60000200010004000100020001000300010067
:101A70000200010005000100020001000300010056
:101A80000200010004000100020001000300010047
:101A90000200010007000100020001000300010034
:101AA0000200010004000100020001000300010027
:101AB0000200010005000100020001000300010016
:101AC0000200010004000100020001000300010007
:101AD00002000100060001000200010003000100F5
:101AE00002000100040001000200010003000100E7
:101AF00002000100050001000200010003000100D6
:101B000002000100040001000200010003000100C6
:101B100002000100F0B50022002300240025102D52
:101B20005CD2012616FA05F213000A681A40140066
:101B30009C4251D103270268AC465FFA8CFC5FEAF5
:101B40004C0C17FA0CFC32EA0C020260D0F800C010
:101B500091F804E02A00D2B252001EFA02FE5EEAB8
:101B60000C0CC0F800C00A79012A02D00A79022AB6
:101B700022D18268AC465FFA8CFC5FEA4C0C17FA03
:101B80000CFC32EA0C028260D0F808C091F805E043
:101B90002A00D2B252001EFA02FE5EEA0C0CC0F815
:101BA00008C04268AE4032EA0606466042688E7956
:101BB000AE40B6B232434260C6682A00D2B252008A
:101BC000974036EA0707C760C668CF792A00D2B2C5
:101BD000520097403E43C6606D1CA0E7F0BD4369CC
:101BE0000A0092B253404361704730B4002513E0BD
:101BF00050F8042BD30744BFA9F101039A18091F19
:101C0000042942F8045BFAD213468C0744BF1580BE
:101C10009B1CC90748BF1D7050F8041B0029E7D161
:101C200030BC704700B585B06A4600212948FFF7EF
:101C3000B5FC08210DF10B0000F002F805B000BD65
:101C40002DE9F04385B004000D0000201221009121
:101C50001221019100218DF8081000218DF8091042
:101C60008DF80A50002630002900C9B280B289B22E
:101C7000884209D2300080B2205C6946320092B2BC
:101C80001144C872761CEEE7DFF848906946484672
:101C9000FFF79EFB07005FF000083900C9B2484615
:101CA000FFF735FC002808D1404680B240F6FF71AE
:101CB000884202DA18F10108EFE7404680B240F6A8
:101CC000FF71884201DB012000E0002005B0BDE883
:101CD000F08300000064004010B4020052B2002AF9
:101CE00009D50A01164B040064B214F00F04234412
:101CF00003F8042C04E00A01124B040064B21A55E4
:101D000010BC704710B50400601EB0F1807F01D395
:101D100001200EE0601E0C4908600F215FF0FF30CB
:101D2000FFF7DAFF0020094908600720084908602A
:101D3000002010BD80B50748FFF7E4FF01BD00009B
:101D400018ED00E000E400E014E000E018E000E03E
:101D500010E000E04090020010B504004FF4FA706B
:101D6000FFF7F8FAFAE710B504004FF47A70FFF7BE
:101D7000F1FAFAE780B5FFF7DDFF4FF4A06000F05D
:101D800021F800F029F8FEF7FFF90B23084A00219B
:101D90000848FFF763F80C23074A00210748FFF7BC
:101DA0005DF8FEF745FA06480178491C0170FAE72C
:101DB00074100020591D000874110020671D0008D0
:101DC0007F13002002490143024A1160704700005E
:101DD0000000FA050CED00E0E0B50121402000F024
:101DE00017F801208DF8040000208DF806004FF44C
:101DF0000040009000208DF8070003208DF80500BA
:101E000069460248FFF786FE07BD00BF0018024082
:101E10000A00D2B2002A04D0044A136803431360B4
:101E200003E0024A1368834313607047303802406E
:101E300038B5114C0121200000F026F8012818D1F6
:101E40000E4D288840F2E731884207DB4FF400410D
:101E50000B48FFF7C4FE0020288002E02888401CC1
:101E6000288008480178491C01700121200000F0F9
:101E700022F831BD00000000000001407A1300206C
:101E8000001802408F130020F0B402000023002647
:101E90000024178A0F4095890D40380080B2002831
:101EA00005D0280080B2002801D0012000E00020E9
:101EB000C0B2F0BC70470A0092B2D24302827047AF
:101EC00080B502215FF08040FFF7DEFF012808D1D6
:101ED0000C480178491C017002215FF08040FFF737
:101EE000EAFF01215FF08040FFF7CEFF012808D113
:101EF00005480188491C018001215FF08040FFF7FF
:101F0000DAFF01BD7C130020781300207047FEE744
:101F1000FEE7FEE7FEE77047704710B54FF400415B
:101F20000848FFF75CFEFEF743FF0400064801780F
:101F3000491C01702000FEF73FFFFEF796F9FEF7FF
:101F40003BF910BD0018024082130020CA05D20DD3
:101F5000828070478088C005C00D70470200002352
:101F6000080080B2B0F5007F1088084201D001203F
:101F700000E00020C0B270470A0092B292050A0049
:101F800092B2D2430280704710B50A4C0121200062
:101F9000FFF77AFF01280CD14FF400410648FFF704
:101FA0001EFE06480178491C017001212000FFF740
:101FB00082FF10BD00040040001802408B13002077
:101FC00070B50C4D40F2255631002800FFF7C6FFD2
:101FD00000280DD031002800FFF7CEFF2800FFF7C2
:101FE000B9FF04002100C9B289B22800FFF7AEFF93
:101FF00070BD000000100140074A904201D2074A1C
:1020000000E0074A8B0003D5064B0B40D36002E08B
:10201000044B0B4093607047106402400060024024
:10202000006402407D0F7D0F80B500F015F80200BE
:102030000023DB431068984204D011000220ABBE9D
:10204000002010605068984204D0111D0220ABBEE1
:102050000020506001BD00000148704700000000F2
:102060000000002030B450F8041B79B102684368C6
:1020700002440830DC0744BFA9F10104E31852F818
:10208000045B43F8045B091FF9D1ECE730BC7047EF
:1020900010B5074979441831064C7C44163404E0E5
:1020A0000A68081D114488470146A142F8D110BDB5
:1020B000740000009400000080B5012000F00EF8CC
:1020C000012806D1012000F014F803480178491CCA
:1020D000017001BD000000007E13002001000022FD
:1020E00006480068084201D0012000E00020C0B28C
:1020F000704702490860704700000000143C01402E
:102100004EF68851CEF20001086840F47000086075
:10211000BFF34F8FBFF36F8F4FF00070E1EE100AE7
:1021200070470000C7FAFFFF881300000800002076
:102130000000000031FFFFFF08000000480200001F
:1021400000000020000000000100000080B50548EC
:102150000178491C017004490148FFF74DFF01BD9A
:10216000286402407D1300200008001000F00DF8E4
:10217000002801D0FFF78CFFAFF300800020AFF301
:102180000080FFF7F7FD00F002F80120704700F033
:1021900001B801000746384600F002F8FBE71400DA
:1021A00080B5FFF741FF024A11001820ABBEFBE7E4
:1021B0002600020075432F4F532D49492049646C76
:1021C0006500000075432F4F532D4949205374611A
:1021D000740000000148804701480047F1180008DA
:1021E000E5210008AFF30080FFF78AFFFFF7BEFF8D
:1021F00078563412FFF7FEBFFFF7FEBFFFF7FEBFB2
:10220000FFF7FEBFFFF7FEBFFFF7FEBFFFF7FEBF02
:10221000FFF7FEBFFFF7FEBFFFF7FEBFFFF7FEBFF2
:10222000FFF7FEBFFFF7FEBFFFF7FEBFFFF7FEBFE2
:10223000FFF7FEBFFFF7FEBFFFF7FEBFFFF7FEBFD2
:10224000FFF7FEBFFFF7FEBFFFF7FEBFFFF7FEBFC2
:10225000FFF7FEBFFFF7FEBFFFF7FEBFFFF7FEBFB2
:10226000FFF7FEBFFFF7FEBFFFF7FEBFFFF7FEBFA2
:10227000FFF7FEBFFFF7FEBFFFF7FEBFFFF7FEBF92
:10228000FFF7FEBFFFF7FEBFFFF7FEBFFFF7FEBF82
:10229000FFF7FEBFFFF7FEBFFFF7FEBFFFF7FEBF72
:1022A000FFF7FEBFFFF7FEBFFFF7FEBFFFF7FEBF62
:1022B000FFF7FEBFFFF7FEBFFFF7FEBFFFF7FEBF52
:1022C000FFF7FEBFFFF7FEBFFFF7FEBFFFF7FEBF42
:1022D000FFF7FEBFFFF7FEBFFFF7FEBFFFF7FEBF32
:1022E000FFF7FEBFFFF7FEBFFFF7FEBFFFF7FEBF22
:1022F000FFF7FEBFFFF7FEBFFFF7FEBFFFF7FEBF12
:10230000FFF7FEBFFFF7FEBFFFF7FEBFFFF7FEBF01
:10231000FFF7FEBFFFF7FEBFFFF7FEBF010018008B
:10232000E00101000100100014000200050001009E
:102330003F00010000000500010000000000010056
:10234000040001000400180008000100040001005E
:102350000100010080000100160001000100800062
:1023600001000100010040005800640001001B72E0
:1023700000001000010007000A000000000000003B
:0C2380000000620FFFFFFFFFFFFFFFFFE8
:04000005080021E5E9
:00000001FF
