:020000040800F2
:1000000000200010353F0008513F0008553F000810
:10001000593F00085D3F0008613F000800000000F4
:10002000000000000000000000000000653F000824
:10003000693F0008000000006D3F0008713F0008A4
:10004000753F0008793F00087D3F0008813F0008A8
:10005000853F0008893F0008D93C00088D3F000813
:10006000913F0008953F0008993F00089D3F000818
:10007000A13F0008A53F0008A93F0008AD3F0008C8
:10008000B13F0008B53F0008B93F0008BD3F000878
:1000900065390008C13F0008C53F0008C93F000896
:1000A000CD3F0008C93A0008D13F0008D53F0008FD
:1000B000213B000829390008D93F0008DD3F00082E
:1000C000E13F0008E53F0008E93F0008ED3F000878
:1000D000F13F00081D3C0008F53F0008F93F00080B
:1000E000FD3F0008014000080540000809400008E5
:1000F0000D40000811400008154000081940000894
:100100001D4000084D0C0008214000082540000853
:10011000294000082D400008314000083540000803
:1001200039400008893D00083D4000084140000872
:1001300045400008494000084D4000085140000873
:1001400055400008594000085D4000086140000823
:1001500065400008694000086D40000871400008D3
:1001600075400008794000087D4000088140000883
:1001700085400008894000088D4000089140000833
:10018000954000089940000810B5DFF8344A94F80B
:100190005600002805D002280DD007D303280FD021
:1001A00012E0DFF8200A01F04DF80DE0DFF8180A40
:1001B00001F048F808E0DFF8140A01F043F803E022
:1001C000DFF80C0A01F03EF894F82C10DFF8040A6E
:1001D00001F038F8B4F85410DFF8FC0901F032F8F7
:1001E000D4E91223120D42EA03321B151100DFF885
:1001F000EC0901F027F8216DDFF8FC0901F022F885
:1002000010BD0020DFF8D81908600020DFF8D419ED
:1002100008600020DFF8D01908600020DFF8CC1952
:1002200008600020DFF8C81908600020DFF8C41952
:1002300008600020DFF8C4190860DFF8C409DFF89F
:10024000C41908600020DFF8C01908607047FEB5C7
:10025000002500240121DFF8B40901F07AF801211A
:100260004FF4006001F091F801214FF4006001F0BB
:100270009AF84FF4F850019002208DF808000220FF
:100280008DF8090000208DF80A0001208DF80B0080
:10029000DFF87C6901A9300001F0DCF8042001904E
:1002A000DFF8707901A9380001F0D4F80C22082198
:1002B000300001F03AF90C220921300001F035F943
:1002C0000C220A21300001F030F90C220B21300001
:1002D00001F02BF90C220C21300001F026F90C2240
:1002E0000221380001F021F900214FF4006001F0F3
:1002F0005AF8FFF786FF31208DF8000000208DF8B6
:10030000010000208DF8020001208DF803006846EE
:1003100001F041F900F053F806003000C0B20028A7
:1003200002D100F064F906003000C0B2002804D108
:10033000DFF88C0800F013FA06003000C0B2002885
:1003400007D1DFF87C08B0F85400000400F025FC69
:1003500006003000C0B2002804D14FF4006000F065
:10036000DEFB06003000C0B2002804D0DFF8A80889
:100370000078032816D1DFF8481891F856000028B5
:1003800003D091F85600012802D10220040001E0B8
:10039000002004002000C0B200F007F8002000F0A8
:1003A000EEFB06003000C0B2FEBDDFF838381A6838
:1003B000120A12020100C9B20A431A6070472DE9FD
:1003C000F84F5FF000085FF0000B002500260024C6
:1003D00000200090DFF84408FF2101750021016032
:1003E00000214160002181600021C1600021016184
:1003F00001F010F9032001F022F9DFF8E8070168A5
:1004000051F48071016000273800C0B24A2817DA21
:10041000DFF80C08002101600021416000218160AB
:100420000021C1604FF48061016101F010F900F01A
:10043000B9FC83465846C0B2002801D07F1CE3E7D0
:100440005846C0B2002802D05846C0B2CDE0DFF80E
:10045000D0974FF4D570C9F800000820C9F80400FF
:100460004020C9F808000020C9F80C004FF4806A49
:10047000C9F810A0484601F0EAF800F0ABFC80464D
:100480004046C0B2002806D10120DFF88C17087062
:100490005FF0804000900020C9F800003720C9F8C4
:1004A00004004020C9F808000020C9F80C00C9F871
:1004B00010A0484601F0CBF8372000F0AFFC83468F
:1004C0005846C0B2002858D1002C46D14FF6FF70D4
:1004D000864242D20020C9F800003720C9F8040043
:1004E0004020C9F808000020C9F80C00C9F810A085
:1004F000484601F0ACF8372000F090FC80464046BA
:10050000C0B2002802D04046C0B26EE00099DFF8C9
:1005100014070143C9F800102920C9F8040040203D
:10052000C9F808000020C9F80C00C9F810A0484616
:1005300001F08DF800F0A2FC83465846C0B20028B6
:1005400002D05846C0B250E0DFF8DC060068050073
:100550002800C00F0400761CB6E74FF6FF708642F5
:1005600002D31B20C0B240E015F08045002D3AD0E8
:100570000220DFF8A416087035E0002C28D14FF6D1
:10058000FF70864224D2DFF8A406C9F800000120DB
:10059000C9F804004020C9F808000020C9F80C0080
:1005A000C9F810A0484601F052F800F067FC8346F5
:1005B0005846C0B2002802D05846C0B215E0DFF855
:1005C0006806006805002800C00F0400761CD4E708
:1005D0004FF6FF70864202D31B20C0B205E0032015
:1005E000DFF8341608705846C0B2BDE8F28F38B54F
:1005F00000240120ADF8000001F024F8002802D109
:100600002520C0B2AAE0DFF81056287804282AD0A6
:10061000DFF80C060021016002214160C0218160E9
:100620000021C1604FF48061016101F010F800F019
:100630003DFC04002000C0B2002802D02000C0B25F
:100640008CE0DFF8EC05DFF8E01509680160DFF801
:10065000E41509684160DFF8E01509688160DFF89A
:10066000DC150968C1602878002808D0287801289E
:1006700005D02878062802D0287802281AD1DFF879
:10068000A00500210160032141604021816000211B
:10069000C1604FF48061016100F0D9FF6946032019
:1006A00000F02FFC04002000C0B2002802D020007F
:1006B000C0B253E0287803281AD1DFF86405BDF8EA
:1006C0000010090401600321416040218160002184
:1006D000C1604FF48061016100F0B9FF00F0E6FBFA
:1006E00004002000C0B2002802D02000C0B235E0D3
:1006F0002878042831D0BDF80000DFF844150860E0
:10070000DFF81C05BDF800100904016009214160F3
:10071000C02181600021C1604FF48061016100F05F
:1007200096FF00F0C3FB04002000C0B2002802D0F6
:100730002000C0B212E0DFF80C05DFF8EC14096805
:100740000160DFF8F01409684160DFF8EC14096813
:100750008160DFF8E8140968C160002032BD2DE92E
:10076000F84F010000208DF801000024DFF8A854A4
:10077000287881F85600DFF8C8040068A1F8540012
:10078000DFF8C0040668360E3200D2B292090A7051
:10079000C6F383024A7016F003028A7007683F0CA2
:1007A000CF70D0F800C05FEA1C2C81F804C0D0F8EC
:1007B00000E081F805E0D0F804805FEA186842465E
:1007C000D2B21201CA80D0F804905FEA1949CB88EE
:1007D0004A46D2B21209D2B21343CB8019F00F02AB
:1007E0000A724268120A1300DBB2DB094B72C2F3D1
:1007F00080138B72C2F34013CB72C2F300130B73DE
:1008000000234B732B78002B05D02B78012B02D0C3
:100810002B78032B5DD11300DBB29B0213F44063F2
:100820000B61D0F804E00B697446E4B253EA840328
:100830000B61D0F808C05FEA1C6C0C696346DBB240
:100840009B09DBB21C430C61CCF3C2030B751CF09B
:1008500007034B7583681B0C1C00E4B264098C759C
:10086000C3F38204CC755C0014F006040C76846833
:10087000240A22000D7E1400E4B255EAD4150D7648
:100880000C69641C0025C1E912455FF0010AD1E939
:1008900012670C7EA41C1AFA04F4E517A4FB06895F
:1008A00004FB079905FB0699C1E9128991F90840F3
:1008B0001AFA04FAC1F850A0D1E912670C6D0025AC
:1008C000A4FB068904FB079905FB0699C1E9128977
:1008D00028E02B78022B25D146683300DBB21B04BD
:1008E00013F47C130B6187683F0E0B693C00E4B284
:1008F00053EA04230B61D0F808C05FEA1C4C0C6972
:100900006346DBB21C430C6183681B0A1A000B6947
:100910005B1C5FF40024A4FB0345C1E912454FF4BE
:1009200000730B65C2F380134B76530013F07E0304
:100930008B7683688DF800308B7E9DF80040E4B2A2
:1009400053EAD4138B769DF8003013F07F03CB76F7
:10095000C3681B0E1C00E4B2E4090C77C3F3411416
:100960004C77C3F382048C779C0014F00C04CC7792
:10097000C468240CCE7F2500EDB256EA9516CE77DA
:10098000C4F3401581F82050002581F8215014F05F
:10099000010581F82250C5682D0A2E00F6B2F6092D
:1009A00081F82360C5F3801681F82460C5F34016F2
:1009B00081F82560C5F3001681F82660C5F381062D
:1009C00081F8276015F0030681F82860C0688DF86B
:1009D00000009DF80000C0B2400881F82900012005
:1009E00081F82A00DFF848623068000E8DF80000B8
:1009F0009DF8000081F82C003068000C8DF8000094
:100A00009DF800000002C8853068000A8DF80000DB
:100A1000CF8D9DF800000743CF8530688DF800002A
:100A20009DF80000000608637068000E8DF8000055
:100A3000086B9DF8007050EA074008637068000C6E
:100A40008DF80000086B9DF8007050EA07200863DD
:100A50007068000A8DF800000F6B9DF800000743D6
:100A60000F6370688DF800009DF8000081F8340075
:100A7000B7683F0E81F83570D6F808E05FEA1E4E81
:100A80007046C0B200068863D6F808805FEA18286E
:100A9000886BC4465FFA8CFC50EA0C408863B068EF
:100AA0008DF80000886B9DF800C050EA0C20886328
:100AB000D6F80CC05FEA1C6CD1F838906046C0B222
:100AC00050EA0909C1F83890D6F80C905FEA194944
:100AD00091F83CA04846C0B25AEA101A81F83CA0EE
:100AE0004846C0B2000210F47060C887D6F80CA067
:100AF0005FEA1A2AB1F83EB05046C0B250EA0B0B7A
:100B0000A1F83EB0F6683000C0B2400881F840005D
:100B1000012081F841009DF80100BDE8F28F38B551
:100B200004000025DFF8F0100878032802D1272000
:100B3000C0B223E00878002805D00878012802D048
:100B40000878022818D1B4F5805F02D12720C0B2FE
:100B500014E02000C0B200F01BFA05002800C0B26B
:100B6000002809D11F48016831F4C05101600168B3
:100B700021430160016801602800C0B232BD01005C
:100B80000020012901D0002903D1DFF8BC20117019
:100B900001E026221000C0B2704710B504002048C2
:100BA000046007214160402181600021C1604FF451
:100BB0008061016100F04BFD072000F02FF910BDAE
:100BC00010000020683E0008803E0008983E0008A3
:100BD000B03E00084C3E0008243F0008C83E000814
:100BE000002C0140042C0140082C01400C2C014039
:100BF000242C0140282C0140E03E00082C2C014010
:100C0000FF07C000382C01403C2C01400C00400084
:100C100000080240000C0240DD00002068000020B7
:100C20009800002000001080142C01400080FF80FC
:100C3000BC000020182C01401C2C0140202C01403D
:100C4000CC000020AC0000200800002080B500F09F
:100C500001F801BD80B54FF4807000F023FD00283D
:100C600033D0DFF8BC050078012815D1DFF8BC05CA
:100C7000002101600C214160402181600021C160A0
:100C80004FF48061016100F0E2FC0C2000F0C6F836
:100C9000DFF88815087003E00020DFF88015087081
:100CA000DFF88C05016851F480710160DFF8781578
:100CB0000A68DFF8800502400A600120DFF8641549
:100CC0000870DFF8580500786BE0022000F0EAFCBD
:100CD00000280FD0022000F0F0FCDFF84C150A6865
:100CE000DFF8500502400A600220DFF83015087076
:100CF000022056E0082000F0D5FC00280FD0082084
:100D000000F0DBFCDFF820150A68DFF82805024058
:100D10000A600420DFF804150870042041E0202058
:100D200000F0C0FC00280FD0202000F0C6FCDFF847
:100D3000F8140A68DFF8FC0402400A600620DFF8B5
:100D4000DC14087006202CE0102000F0ABFC00281A
:100D50000FD0102000F0B1FCDFF8CC140A68DFF8E7
:100D6000D40402400A600520DFF8B01408700520A2
:100D700017E04FF4007000F095FC002810D04FF4FD
:100D8000007000F09AFCDFF8A0140A68DFF8A404F1
:100D900002400A600720DFF884140870072000E092
:100DA000002002BD38B500255FF480342000441EC9
:100DB000002804D0802000F075FC0028F6D0002C1C
:100DC00001D1032005E040F2FF5000F076FC28003E
:100DD000C0B232BDF8B500265FF480342000441E56
:100DE000002806D0DFF82C040068050015F0450F38
:100DF000F4D0002C01D0680706D50327042000F0AA
:100E00005CFC3800C0B208E0680604D5002006008B
:100E1000402000F052FC3000C0B2F2BD38B50400F2
:100E2000DFF8F0030068050015F0450FF8D0042046
:100E300000F038FC002804D0042000F03EFC032021
:100E40001BE0012000F02EFC002804D0012000F05F
:100E500034FC012011E0DFF8E00300682100C9B292
:100E6000884201D0102008E040F2FF5000F025FC3D
:100E7000DFF8C803006810F0080032BD10B5DFF8D5
:100E800094030068040014F0450FF8D0042000F02B
:100E900009FC002804D0042000F00FFC032004E02B
:100EA00040F2FF5000F009FC002010BDF8B500260C
:100EB0005FF480342000441E002806D0DFF854037D
:100EC0000068050015F0450FF4D0002C01D068072C
:100ED00006D50327042000F0F0FB3800C0B20FE075
:100EE000012000F0DFFB002804D0012006000120D3
:100EF00000F0E3FB40F2FF5000F0DFFB3000C0B237
:100F0000F2BDF8B505000E000027DFF80803006801
:100F1000040014F0450FF8D0042000F0C3FB0028B3
:100F200004D0042000F0C9FB032030E0012000F0D1
:100F3000B9FB002804D0012000F0BFFB012026E00F
:100F4000DFF8F40200682900C9B2884201D01020FD
:100F50001DE040F2FF5000F0B0FBDFF8E002016856
:100F600011F4604F05D10800000C30803800C0B289
:100F70000DE0880401D5132009E0480401D51020B4
:100F800005E0080401D50F2001E03800C0B2F2BD31
:100F90002DE9FE4304000027684600210022C0E935
:100FA000001200212000C0B2002801D0022500E07C
:100FB0000025DFF888020068800101D50E2044E09A
:100FC000DFF88C806946D8F8000080B200F042F863
:100FD00006003000C0B2002802D03000C0B234E0B9
:100FE0000198400330D5DFF84472D8F800000004BF
:100FF0003860372078604020B8600020F8604FF4F7
:101000008069C7F81090380000F021FB3720FFF707
:1010100005FF80464046C0B2002802D04046C0B21C
:1010200013E02800C0B23860062078604020B86025
:101030000020F860C7F81090380000F008FB062088
:10104000FFF7ECFEC0B200E02520BDE8FE83000003
:10105000CC0000202DE9FC4704000D0000265FF0C5
:10106000000A684600210022C0E90012DFF8BC81B6
:101070000820C8F800001020C8F804004020C8F874
:1010800008000020C8F80C004FF48069C8F81090E0
:10109000404600F0DCFA1020FFF7C0FE07003800E1
:1010A000C0B2002802D03800C0B2AFE0DFF8900133
:1010B00000680004C8F800003720C8F80400402089
:1010C000C8F808000020C8F80C00C8F81090404686
:1010D00000F0BDFA3720FFF7A1FE82465046C0B2AD
:1010E000002802D05046C0B290E049485FF0FF317E
:1010F000016008214160302181600221C16000212E
:1011000001610121416100F0B6FA0020C8F8000039
:101110003320C8F804004020C8F808000020C8F8B0
:101120000C00C8F81090404600F091FA3320FFF709
:1011300075FE07003800C0B2002802D03800C0B2E7
:1011400064E03448006840F22A6108420DD15FF43F
:10115000001000F0A7FA0028F3D02F480068694675
:1011600041F82600761C022EEBD3082000F09AFAF4
:10117000002804D0082000F0A0FA042046E0022055
:1011800000F090FA002804D0022000F096FA022025
:101190003CE0202000F086FA002804D0202000F057
:1011A0008CFA062032E04FF4007000F07BFA002841
:1011B00005D04FF4007000F080FA072026E040F2DE
:1011C000FF5000F07AFA00980099090211F47F01AB
:1011D00051EA00610098000A10F47F400143009832
:1011E00051EA10616960684641684268120212F46F
:1011F0007F0252EA01624168090A11F47F410A4301
:10120000406852EA10622A603800C0B2BDE8F68732
:1012100080000020342C0140802C0140DF000020A1
:10122000DE000020E00000203C2C0140980000205F
:10123000382C0140C53CFFFF102C0140142C01400C
:10124000CC0000200EB4C0B5024603A800210190D6
:10125000009101AB0121044878440C3000F044FABD
:1012600006BC5DF810FB00BF912C0000DFF8981160
:10127000086850F0010008600020DFF8902110603D
:101280000A68DFF88C0102400A60DFF88801DFF8A5
:1012900088211060DFF88401DFF884211060DFF816
:1012A0008401DFF884211060086830F48020086031
:1012B0000020DFF8781108600020DFF87411086062
:1012C00070470100C9B2DFF86C211160704770B43B
:1012D000039C51EA82151E007608761E55EA0645E3
:1012E000054355EA0465DFF83061356070BC70472E
:1012F0000100C9B2DFF84421116070470021DFF816
:101300000C311A689208920002431A607047DFF8A5
:10131000FC00006810F00C0070470021DFF8EC3092
:101320001A6832F0F00202431A6070470021DFF8B9
:10133000DC301A6832F4E05202431A607047002130
:10134000DFF8C8301A6832F4604252EAC0021A600C
:1013500070470A00D2B2002A04D0394A1368034306
:10136000136003E0364A13688343136070470A0032
:10137000D2B2002A04D0334A13680343136003E057
:10138000304A13688343136070470A00D2B2002AC0
:1013900004D02D4A13680343136003E02A4A1368FC
:1013A0008343136070470A00D2B2002A04D0274A50
:1013B00013680343136003E0244A136883431360F4
:1013C000704730B401000020002300250A00D2B28B
:1013D0005209D2B2012A02D10B48046806E0022A5F
:1013E00002D11548046801E0194804680B00DBB21B
:1013F00013F01F032000D840C00701D5012000E0F2
:101400000020C0B230BC70470038024008380240AB
:10141000FFFFF6EA103000240438024000300020BC
:101420008438024000300024883802400C380240E2
:101430008C3802400000474270380240600047424A
:1014400030380240403802404438024024380240DC
:1014500074380240F0B50022002300240025102D2E
:101460005CD2012616FA05F213000A681A4014002D
:101470009C4251D103270268AC465FFA8CFC5FEABC
:101480004C0C17FA0CFC32EA0C020260D0F800C0D7
:1014900091F804E02A00D2B252001EFA02FE5EEA7F
:1014A0000C0CC0F800C00A79012A02D00A79022A7D
:1014B00022D18268AC465FFA8CFC5FEA4C0C17FACA
:1014C0000CFC32EA0C028260D0F808C091F805E00A
:1014D0002A00D2B252001EFA02FE5EEA0C0CC0F8DC
:1014E00008C04268AE4032EA0606466042688E791D
:1014F000AE40B6B232434260C6682A00D2B2520051
:10150000974036EA0707C760C668CF792A00D2B28B
:10151000520097403E43C6606D1CA0E7F0BD436992
:101520000A0092B2534043617047F0B50024002591
:101530001300DBB211F00706F6B2B60013FA06F696
:101540000B009BB2DB1000EB83070B009BB2DB10A0
:1015500000EB8303D3F820C05FF00F0E11F00703F8
:10156000DBB29B001EFA03FE3CEA0E0CC7F820C05B
:101570000B009BB2DB1000EB83031B6A33430F00AD
:10158000BFB2FF1000EB87073B62F0BD1C4901436F
:101590001C4A11607047F0B4002200230F24C17868
:1015A000002920D01749096811F4E061D1F5E06104
:1015B000090AD1F104052B00E4B20C4145789D40A5
:1015C0008678264035432D012A000F4D0678AA550E
:1015D0000125067816F01F06B5400C4E07787F11DE
:1015E00046F8275009E00121057815F01F05A940AC
:1015F000074D0678761145F82610F0BC70470000BC
:101600000000FA050CED00E000E400E000E100E07D
:1016100080E100E030B40022294C236829490B40C6
:10162000057D81680D4341680D43C1680D43016824
:101630000D4301690D432B43236030BC70472249A1
:10164000086070472048006810F00300704730B40D
:10165000002201681D4B19601D4C2368DB0ADB0268
:10166000456881680D43C1680D4301690D432B43F3
:10167000236030BC704730B400220168154B1960FC
:101680004168154B1960154C236833F0F7038568E2
:10169000C1680D4301690D4341690D432B4323602C
:1016A00030BC7047010000220D480068084201D09C
:1016B000012000E00020C0B270470A49086070476E
:1016C000042C01400081FFFF002C0140082C014048
:1016D0000C2C0140242C0140282C01402C2C0140D2
:1016E000342C0140382C01402DE9F0439FB000BF5D
:1016F00065A6269CDFF8E88A8DF83B40029100241D
:101700000B944FF0FF37044691461D460AE019F846
:10171000011B0298A0470028029000F0A1800B98BE
:10172000401C0B9099F8000050B12528EFD1002102
:101730000022059106920791089209910A9203E00E
:101740000B98A5E041F0010119F8010F2028F9D00C
:1017500023280CD02B2804D02D2805D0302809D0E0
:1017600080E041F00201EFE741F00401ECE741F0D5
:101770000801E9E741F01001E6E70D920AE00D9853
:10178000404505DA00EB800002EB4002303A0D9252
:1017900009F1010999F80020A2F130000A28EED3DE
:1017A00099F800002E2818BF0C9726D119F8010FC0
:1017B0002A2808D12868286009F1010950F8042B6B
:1017C00028600C9219E02D280CBF09F101090020B6
:1017D00000220C920BE040B90C9A424505DA02EB6C
:1017E000820203EB4203303B0C9309F1010999F8A3
:1017F0000030A3F130020A2AEDD3ADF8381030469C
:1018000099F8001000F0A0FE08B119F8010B8DF84E
:101810003A009DF83A00682805D199F80000682838
:101820000CD1622106E06C2804BF99F800006C28F6
:1018300004D171218DF83A1009F1010910A8049022
:101840002A4619F8013B6946204600F061F838B98C
:1018500010AA6946204600F091F900287FF562AF92
:10186000384615E02A2888D12A682A6052F8040BE5
:101870002A6000280D9003D540420D9041F00401EC
:1018800009F101098CE70000686A6C747A4C000069
:101890001FB0BDE8F083622820D0682811D06A28E4
:1018A00003D06C2827D0712825D10868C01D20F0EE
:1018B00007000860D0E90023083008601946104688
:1018C0007047002A0A680A60106803D0121D0A6077
:1018D00000B217E0121D0A6080B217E0002A0A6801
:1018E0000A60106803D0121D0A6040B20AE0121D9F
:1018F0000A60C0B20AE0002A0A680A60106803D0D1
:10190000121D0A60C1177047121D0A60002170473E
:1019100070B51C460D46B4F125002E69114600F045
:101920001B811C386AD0001F022867D9133843D0A6
:10193000093863D0801E16D0401E1ED0401E0228DB
:101940005CD9001F19D0401F00F08380401E33D0A7
:10195000401E00F0CD80C01E00F0DC80801E2BD029
:10196000C01E29D0FEE06869421C6A610A680A60EC
:1019700052F8043B0A603354FEE095F83A00012225
:10198000FFF789FFC5E900010023994204DA68697D
:10199000411C69612D220DE0288F810704D56869FB
:1019A000411C69612B2205E0C00722D56869411CF2
:1019B0006961202232541CE095F83A000022FFF7BA
:1019C0006AFFC5E9000195F83800010711D5D5E98E
:1019D00000230020834208BF82420AD044F0200046
:1019E000782806D1686930213154401C421C6A6154
:1019F0003454214668693044E86087E00868C01DB7
:101A000020F007000860D0E9002308300860C5E92D
:101A10000023D5E90001C80F04D06869411C696141
:101A20002D220DE0288F810704D56869411C69616A
:101A30002B2205E0C00704D56869411C696120229A
:101A4000325468693044E8602146284600F0C8F9FD
:101A500092E005F13A02507820B14FF0FF340FF6D2
:101A6000502062E01078622808D0682824D06A28C4
:101A700012D06C282ED071280ED02BE00A680A6094
:101A800052F8040B0A6020B94FF0FF340FF63820EB
:101A90004BE0E96A01706FE00A680A6052F8040BD3
:101AA0000A6020B94FF0FF340FF61C203DE0EA6ACF
:101AB000D317C0E900235FE00A680A6052F8040BFC
:101AC0000A6020B94FF0FF340FF6FC102DE0E96AF0
:101AD000018051E00A680A6052F8040B0A6020B9DC
:101AE0004FF0FF340FF6E0101FE0E96A016043E0B9
:101AF0000A680A6052F8040B0A60002120F0000214
:101B000021F0FF33C5E90023EE607821284600F07C
:101B1000BBF831E00868086050F8044B0860EC60DE
:101B20003CB94FF0FF340FF6B81000F019FD201A41
:101B300070BD2E6B002E04D5204600F031FD04460A
:101B400008E032460021204600F046FD002814BF80
:101B5000041B3446AC610FE06869411C69612522B1
:101B6000325409E06969481C6861252272542100D9
:101B700002D0431C6B613454002070BD2DE9FC4140
:101B80000F46064690467A6B7869396ABC6A121A23
:101B9000B869521A796A121AF869521A121A97F821
:101BA0003800141B41070FD42020002C8DF80000B2
:101BB0000ADD254601236A463946304600F060FCBE
:101BC00000285DD16D1EF5D17B694246394630460D
:101BD00000F056FC002853D130208DF800003D6AFB
:101BE000002D09DD01236A463946304600F048FCE5
:101BF000002845D16D1EF5D1BB69FA6839463046DB
:101C000000F03EFC00283BD130208DF800007D6ABA
:101C1000002D08DD01236A463946304600F030FCCD
:101C200070BB6D1EF6D1F868B969FB694218394678
:101C3000304600F025FC18BB30208DF80000BD6A4E
:101C4000002D08DD01236A463946304600F018FCB5
:101C5000B0B96D1EF6D197F8380041070DD5202098
:101C6000002C8DF8000008DD01236A463946304615
:101C700000F006FC20B9641EF6D10020BDE8F68114
:101C80004FF0FF30BDE8F6812DE9FC4707468C4652
:101C90003E69BCF16F0F08BF082405D04CF020004E
:101CA000782814BF0A2410243C25D7E90023BCF16E
:101CB000640F18BFBCF1690F9046994606D1002108
:101CC0008B4203DAD8F1000869EB49094FF0000AAA
:101CD000D14508BFD0451FD1386BE8B9082C4BD18E
:101CE00097F83800010747D530203B2586F83B00A0
:101CF00042E000280ED597F8380000F014001028B4
:101D000008D17B6B7969386A5B1A1B1A9A1A002A08
:101D1000C8BF3A62BDE8F3878DF800C04046494627
:101D20002246E31700F084FC3032D0B26D1E3A2810
:101D3000019504DB9DF80000A0F151018A1872554D
:101D4000404649462246E31700F072FC8946804629
:101D5000D14508BFD04503D0F86871198842DDD35A
:101D6000082C09D197F83800010705D5705D302897
:101D700002D06D1E30207055C5F13C02BA61711958
:101D8000F960386B8242B4DA821A3A624FF6EF7029
:101D9000398F01403987BDE8F3872DE9D0430646E6
:101DA0000F4614464FF00008DFF8389412E0E007C1
:101DB00007D542464B463046394600F051FD0646AF
:101DC0000F464046494642464B4600F049FD6410E6
:101DD00080468946002CEAD130463946BDE8D0839A
:101DE0002DE9F34F054641F020048DB0D5E9008977
:101DF000612C02AE09D0286B002848BF062003D40E
:101E000008BF672C01D101202863D5E900235800C1
:101E10004015401C0ED119030CD00320A8619DF879
:101E2000381061391A2902D20FF2D06111E00FF295
:101E3000D0610EE059004915491C0FD118030DD18E
:101E40000320A8619DF8381061391A2914D30FF2C4
:101E5000B861E868032200F0D5FDD3E1194621F00E
:101E60000043B3F5801F10460DD20027BB4208BFC8
:101E7000BA42019703D111E00FF28861E9E701AAA4
:101E800000F014FE0AE0DFF8607307EB1352DFF88E
:101E90005C3301921940DFF858331943C5E900015A
:101EA000612C0ED1E86830210170821CEA609DF837
:101EB000381061290CBF7821582141706869801C55
:101EC0006861D5E900AB2BF0004300202AF0000246
:101ED000834204BF8242002300F05B81612C40F00A
:101EE000AA80286B002847BF21210091401C009048
:101EF000009F7F1C404649460022002300F00EFE52
:101F0000D94601998DF8082038BF89F00049091F8A
:101F1000002FD04601910DF1090040F34981B349EA
:101F2000DFF8D0B20C910646404649460022002315
:101F300000F00CFE80F03B814800400D00F11C02D7
:101F400011D0002A0FDD40F2FF70824205DB09F05C
:101F5000004040EA0B01002013E00C98014041EAE8
:101F6000025140460DE029F00043002028F0000215
:101F7000834208BF82420FBF40461C22404600F009
:101F8000FDFD8046894600F097FEFF1F002F0446A6
:101F900009DD00F0AFFE02460B464046494600F020
:101FA000BBFE80468946F01D072104E004F00F02C5
:101FB00000F8012D2411002C01DD491EF6D5491E23
:101FC0005CBF002200F8012DF9D5ECE00020194695
:101FD00002AA0A4400E05B1E12F80149491E84422D
:101FE000F9D00F2804D10DF10900425C521C425473
:101FF000002904D50198001D02AE5B1C0190591EFA
:1020000012D49DF838007218A0F13A07147804F140
:1020100030085FFA88F43A2CA8BFB844491E02F889
:102020000189F3D58DF83800286B002840F1B08085
:10203000591E2963ACE0404649460022002300F0C7
:102040006DFD019938BF89F0004947F2975041432F
:10205000694A91FBF2F20192D2F1070204DD404697
:102060004946FFF79AFE0AE0524200206349FFF713
:1020700094FE02460B464046494600F0BFFE8046AD
:10208000662C286BDFF878B106BF019F0A37062758
:102090003F18142FC8BF142730208DF80800894638
:1020A0000DF1090000E03046002F34DD06464046C1
:1020B000494600F0C7FF01460A4606F1080304201E
:1020C0000A26B2FBF6F606EB860EA2EB4E02303283
:1020D00003F8012C0A22B6FBF2F202EB820EA6EB09
:1020E0004E063036401E03F8026DE9D1083F002F3E
:1020F00003F10806D7DD084600F0B8FF02460B469C
:102100004046494600F008FE00225B4600F0A8FB6E
:1021100080468946CBE70DF10901401A0DF1090609
:1021200004E00199491E401E0191761C3178302946
:10213000F7D0662C02D10199491C03E0652C0CBF35
:10214000012100212B6BCB189842B8BF431E002BF6
:102150001ED4834204DAF05C3528A8BF392000DAA7
:1021600030201946721E02EB010800E05B1E18F8D1
:102170000199491E8145F9D0392802D1705C401C73
:102180007054002904D50198401C16465B1C019030
:10219000019800B200901BB29DF8381032462846D4
:1021A00000F034F82EE0C61D002F3FF7BDAE3046DC
:1021B0000DF10901401A009903468842C8BF0B4639
:1021C000002B0DF109063FF52FAF8342BFF6FEAE9F
:1021D0000DF10900C15C07297FF7F8AE0F20F6E684
:1021E000CBCCCC0C0000244002FCFFFFFFFF0F8093
:1021F0000000E03F0000F07FA08601000000F03FFB
:1022000084D797410FB0BDE8F08F00002DE9FC4363
:10221000054683B01F46D5F83080002F164602DCF5
:102220005FF00107B9A6894649F02000BDF93040AA
:10223000662808BF641C17D0672840F0888014F116
:10224000040FC0F28A80444580F2878095F83800F8
:10225000641C010702D44745B8BFB84620B2B8EBAA
:10226000000848BF4FF000080FFA84F9E868A96930
:10227000B9F1000F27DC4A1C30234354B8F1000F9A
:1022800003DC95F83800010703D5E9682E2088544F
:10229000521C18EB090FB8BFC8F1000424B2604209
:1022A0006862A044B845AA61B8BF4746EB68A86910
:1022B0003FB2EF613A463146184400F0A3FBA8EB69
:1022C0000700A862C5E022B29742084419DA3A46EC
:1022D000314600F097FBA8693818A9EB0707B8F159
:1022E000000FA8616F6203DC95F838100A0705D566
:1022F000EA682E211154E869401CE861C5F828807D
:10230000A7E0314600F07EFBA8693F1BB8F1000F43
:10231000484403DC95F838100A0703D5EA682E21F3
:102320001154401CA86138B28045EB68A869B8BF59
:1023300047463AB206EB0901184400F063FBA9696D
:102340003FB27918A8EB0707A9616F6281E0B9F184
:10235000610F16D14FF0700918E0474504DA95F87F
:1023600038100A0758BFB846B8F1010848BF4FF007
:102370000008B9F1670F14BF4FF045094FF0650928
:1023800004E0B9F1410F08BF4FF05009A969EB68AB
:10239000481CA861B8F1000F16F8012B5A5403DC51
:1023A00095F838100A0719D5EA68431CAB612E214D
:1023B0001154B8F1000F11DD7F1E38B2314680454F
:1023C000EE68B8BF47463AB2F01800F01BFBA869A8
:1023D0003FB23818A861A8EB07006862E868A969ED
:1023E0000844002C80F8009003D42B224270811CFA
:1023F00003E02D2141706442811C00206A460AE0FE
:1024000023460A2493FBF4F404EB8406A3EB46036F
:1024100002F8013B401C24B2002CF1DC012806DC50
:1024200049F02002652A04BF302201F8012B48B987
:10243000302001F8010B07E0401E1DF8003030335A
:1024400001F8013B0028F7DCEA68A8691044091A82
:10245000E96195F8380000F0140010280DD16A6980
:10246000A969686A8A18E9698218A86A8A188218AC
:10247000686B8242BCBF821A2A6205B0BDE8F08355
:10248000F8B505460E4617461C46002074B117F8ED
:10249000011BB068A847B06030B1F06A401CF06220
:1024A0000020641EF3D1F2BD4FF0FF30F2BD0000FA
:1024B0007072696E74665F733A20256E206469736A
:1024C000616C6C6F776564007072696E74663A2037
:1024D00062616420256E20617267756D656E74009F
:1024E0007072696E74665F733A206261642025734E
:1024F00020617267756D656E740000006E616E001C
:102500004E414E00696E6600494E4600300030B4C0
:10251000002513E050F8042BD30744BFA9F10103B1
:102520009A18091F042942F8045BFAD213468C0753
:1025300044BF15809B1CC90748BF1D7050F8041B81
:102540000029E7D130BC70470278C9B28A421AB17B
:102550001CBF10F8012FF9E718BF002070470000DA
:1025600080B500B906A005490B681BB122220021E5
:10257000984701E000F087FD222002BDD000002036
:10258000636F6E73747261696E742068616E646CDF
:1025900065723A20626164206D65737361676500DE
:1025A00000F10103810704D010F8011B820781B1FB
:1025B000FAD10268A2F10131914311F0803104BFD8
:1025C00050F8042FF6E709BAB1FA81F100EBD10017
:1025D000401CC01A70470000C9B2830706D0521EC3
:1025E00022D310F8013B9942F7D11FE0083A13D3E8
:1025F00002F1040241EA012141EA014150F8043BA1
:10260000121F21BF4B40A3F1013C2CEA030C1CF02C
:10261000803FF3D0C9B2001F083210F8013B521EB0
:1026200028BF91EA030FF8D818BF0120401E704759
:10263000BBBBE1B1B2F5803F80F07E80022A1ED99B
:102640008C46B1FBF2F102FB11C31B0443EA1043B9
:10265000B3FBF2FC02FB1C3380B240EA0343B3FB42
:10266000F2F002FB103240EA0C4000237047022ACD
:1026700005D98446B0FBF2F002FB10C270474AB1A4
:1026800005D100F0010249085FEA300070470022DE
:102690000023704700F0FABC0B000200002100206C
:1026A0007047904271EB030CF6D3B3F5803F2FD205
:1026B000F0B5B3FA83F7B1FA81F4A7F10F0E3D1B21
:1026C0005340CEF1200602FA0EF2F3415340B5F129
:1026D0000F0746D80F3C2C444140C4F12006A040CF
:1026E000F1414140B1FBF3F603FB1611A2FB064595
:1026F000001BA94102D2761E8018594180EA0102CE
:1027000021FA0EF362FA0EF200215A403046F0BD73
:1027100030B4B1FBF3FC03FB1C11A2FB0C45001B06
:10272000A94103D2ACF1010C8018594130BC0246DA
:102730000B46604600217047B2F1807F65D3F0B54B
:10274000B2FA82F7B1FA81F4C7F10F063D1B22FA03
:1027500006F307F1110EF24120355A40B5F10F078B
:10276000B8D94140C4F12006A040F1414140B1FB3D
:10277000F3FC03FB1C11A2FB0C45001BA94103D277
:10278000BCF1010C801859410F2F12D30F3FC90320
:1027900041EA5041B1FBF3F603FB1611A2FB0645DB
:1027A000D4EBC030A94102D2761E8018594146EAC6
:1027B000CC3C07B34140C7F12006B840F14141404D
:1027C000B1FBF3F603FB1611A2FB0645001BA94162
:1027D00002D2761E8018594180EA010221FA0EF3D6
:1027E000C7F1200462FA0EF20CFA07F05A402CFAF4
:1027F00004F13043F0BD80EA010221FA0EF300211A
:1028000062FA0EF260465A40F0BD8C46B1FBF2F11E
:1028100002FB11C31B0243EA1063B3FBF2FC02FB91
:102820001C331B024CEA002043EA1063B3FBF2FCAA
:1028300002FB1C331B024CEA002043EA1063B3FB8B
:10284000F2FC02FB1C331B024CEA002043EA10633B
:10285000B3FBF2FC02FB1C324CEA00200023704761
:10286000B0B581EA030C0CF0004C40F2FF7515EA9C
:1028700011541DBF15EA1357AC42AF4239E0E419B9
:1028800023EA455343F48013C90241F0004141EA71
:10289000505EC7021100A7FB020200284FF00000A3
:1028A000EEFB01204FF00001E3FB072118BF42F0CF
:1028B0000102401800214941E3FB0E01A4F58064A8
:1028C0000F0302D252004041494154F101046CDD32
:1028D000470872F1004250F1000051EB0451A1F59C
:1028E00080115CBF41EA0C01B0BD4CEA05510020EB
:1028F000B0BD05EA1357AC4214BFAF4241E050EA05
:10290000410E1CBF52EA430E02E061460020B0BDFA
:1029100024423C441BD15FEA070EF6D0090302BFF4
:1029200001460020AEF1140EB1FA81F7AEEB0704B8
:1029300001FA07FE0C37C7F1200100FA07F7C8407B
:102940004EEA000E23EA455343F48013A2E733F026
:102950000043B3FA83F704BFB2FA82FE77440B3F19
:10296000E41BB7F1200E2FBF02FA0EF3BB40C7F1F4
:10297000200E22FA0EFE38BF43EA0E03BA40641C52
:1029800082E750EA410E14BF52EA430E6FF0000195
:102990004FF4001717EB430F8ABF194617EB410F8F
:1029A000B5E74CEA05510020B0BDD4F10104B4F103
:1029B00020070FDAC4F12007520828BF42F00102B5
:1029C00010FA07F501FA07F7E1BF2A43E040384360
:1029D000E1400FE0352C98DCC7F1200452EA4002B8
:1029E00020FA07F218BF42F0010231FA07F0A140C5
:1029F0000A43002172F1004250F1000051EB0C013A
:102A0000B0BD000062B38B0708D0521E11F8013B25
:102A100000F8013B00F024808B07F6D1830740F0DB
:102A2000208000BF103A07D330B4B1E83810103A14
:102A3000A0E83810F9D230BC530724BFB1E8081021
:102A4000A0E8081044BF51F8043B40F8043BD2070B
:102A500024BF31F8022B20F8022B44BF0B780370FF
:102A60007047121F17D35B0009D151F8043B20F8BF
:102A7000023B1B0C121F20F8023BF6D20BE051F870
:102A8000043B00F8013B1B0A20F8023B1B0C121F01
:102A900000F8013BF3D238BF121D521E24BF11F8BB
:102AA000013B00F8013BF8D87047000010B5144610
:102AB00000F002F8226010BDC1F30A5343B14A008E
:102AC00012F5001F28D2A3F2FE32A1EB025170478B
:102AD00050EA410C20D001F0004C31EA0C01B1FA6F
:102AE00081F204BFB0FA80F3D2180B3AB2F120039E
:102AF0002CBF00FA03F1914041EA0C013EBFC2F144
:102B0000200C20FA0CF319439040524240F2FD335E
:102B1000D21A01EB03517047002270474FF4001C9A
:102B20001CEB410F94BF1CEB430F09E041EA030C7F
:102B300050EA4C0C52EA0C0C03D2994208BF904266
:102B4000704714BF8B428242704700004FF4001C54
:102B50001CEB410F94BF1CEB430F09E041EA030C4F
:102B600050EA4C0C52EA0C0C03D28B4208BF824252
:102B7000704714BF9942904270470000124254D4EB
:102B800040F2FF7C1CEA11530FD0634531D09B18F3
:102B900063453CBF01EB0251704701F0004141EA3F
:102BA0000C510020AFF30080704750EA410320D061
:102BB00001F0004C91EA0C011CD0B1FA81F30B3BFF
:102BC0009A420DD9D21A994051EA0C01C3F1200C56
:102BD00020FA0CFC61449840531C40F2FF7CD7E77C
:102BE000914041EA0C01C2F1200C20FA0CF3194388
:102BF00090407047B0FA80F31533202BE0D3202AA1
:102C0000EED3203A203B9A4209D9D21A00FA03F1B6
:102C100041EA0C010020531C40F2FF7CB8E700FAA7
:102C200002F141EA0C0100207047524240F2FF7C61
:102C30001CEA11530DD06345DBD0B2EB030C3CBF53
:102C4000A1EB025170470CF1010221EA035141F45A
:102C5000801150EA410CCCD001F0004C352A27DC21
:102C600030B481EA0C01B2F1200309DAC2F1200389
:102C7000044601FA03F5D0402843D1409C400CE0C3
:102C8000C3F12002450020FA03F418BF44F0010408
:102C900021FA03F091400C43002174F1004550F1FA
:102CA000000051EB0C01244230BC7FF47BAF704735
:102CB0006146002076E70000C1F30A5340F2FE327D
:102CC0009B1A14DDD3F120034FEAE17208DDC9023B
:102CD00041EA505141F00040D840801850407047C0
:102CE00003F2E13010B1D24382F00040704700207F
:102CF00070470000C11768B14840401AB0FA80F22E
:102D00009040D21CC907C2F5846241EA025202EB2C
:102D1000D02140057047000070B44FF0004591EAA3
:102D2000030F40F1B5816B40841A71EB030603D2A7
:102D3000001BB141121973414FF4001C1CEB410FF1
:102D400034BF7CEB430442E00C0DA4EB1356352E4C
:102D50004FDC45EAC323DB0A45EAC121C912B6F1BB
:102D600020050DDD63FA05F6EB4086EA0305124205
:102D700018BF45F00105C01851F100010CD213E055
:102D800062FA06F5F2405540F3415A40B340F34031
:102D90005A408018594107D349085FEA30005FEA7A
:102DA000350528BF45F0010501F58011420875F190
:102DB000004250F1000041EB04514E0016F5001F97
:102DC00070BC38BF70470020090D090570471CEB27
:102DD000410F10D252EA43060BD0BCEB410F05D88D
:102DE0000C0DAB43661E342EB6DD02E0AB438018FB
:102DF000594170BC704770BC70470000F0B540F29C
:102E0000FF7581EA030C0CF0004C15EA11541DBF4C
:102E100015EA1357AC42AF42E5E0BC41C1F31301E0
:102E2000C3F31303801A994143F4801304D2641E40
:102E30004000494180185941C90241EA5051B1FB53
:102E4000F3F603FB1611A2FB0675D7EBC020A941D0
:102E500002D2761E80185941C90241EA5051B1FB95
:102E6000F3FE03FB1E11A2FB0E75D7EBC020A94198
:102E700003D2AEF1010E80185941890241EA905106
:102E8000760546EA8E2EB1FBF3F603FB1611A2FB84
:102E90000675D7EB8020A94102D2761E80185941D1
:102EA000C90241EA50514EEA060EB1FBF3F603FBAC
:102EB0001611A2FB0675D7EBC020A94102D2761EDF
:102EC00080185941C90241EA5051B1FBF3F703FBA5
:102ED0001711A2FB0735D3EBC020A94167F100070A
:102EE0000CBF004247F0010766F3D5274FEA1E31B9
:102EF000B80814F5806412DDBD0775F1004250EB8F
:102F00000E5051EB045111F5801F5CBF41EA0C01DA
:102F1000F0BD4CF07F6141F0E0410020F0BDBD0705
:102F20006D0840EA0E5041F48011D4F10104B4F16F
:102F300020060ADAC4F120060200E04001FA06F396
:102F4000E1401843B24015430EE0342C13DCC6F1C7
:102F5000200445EA40056D0820FA06F2154321FADF
:102F600006F0A1400D43002175F1004250F1000030
:102F700051EB0C01F0BD00205FEA0C01F0BDCFB9B0
:102F800092185B41B3FA83F704BFB2FA82F6BF1915
:102F90000B3FB7F120062FBF02FA06F3BB40C7F183
:102FA000200622FA06F638BF3343BA401CB1E419B2
:102FB000641E33E77F4231F00041B1FA81F404BF6F
:102FC000B0FA80F6A4190B3CB4F120062FBF00FA2A
:102FD00006F1A140C4F1200620FA06F638BF3143BD
:102FE000A0403C1B1AE7AC421ABF05EA1357AF4298
:102FF00012E050EA41061CBF52EA4306BFE750EA1E
:103000004107304661461CBF41EA0551F0BD52EA16
:10301000430C08BFC143F0BD00204FF4001616EB6F
:10302000410F98BF16EB430F08BF16EB410F24BFAB
:10303000C14305E016EB430F0CBF61464CEA055156
:10304000F0BD0000400D491840EA81200CD2490D26
:10305000A1F58061491C40F0004005DBD1F11F0162
:1030600054BFC840C017704700207047014648B1A0
:10307000B0FA80F18840C91CC1F58461090501EBF3
:10308000D02140057047012000F0B8B8704700001B
:10309000841A71EB030604D26E40001BB141121971
:1030A00073414FF4001C1CEB410F34BF7CEB430613
:1030B00083E00C0DA4EB1356362E00F37C80012E1A
:1030C00045EAC32341DC43EA525312BFD2029202C3
:1030D0005B08240545EAC12141EA5051D2EBC020EA
:1030E000994125D407D1B0FA80F610FA06F162D0E2
:1030F0000020203608E0B1FA81F6B140C6F1200286
:1031000020FA02F21143B0404FEAF474B4EB465493
:1031100034F001064FEA74040AD8D6F50016760D8D
:1031200004F00044F04061FA06F25040F14048409B
:10313000C00A40EA415021F0004128BF5FEA500533
:1031400050F1000044EBD12135E0DB0A45EAC12112
:10315000C90AB6F120050EDD42EA0242120CC5F1A1
:10316000200603FA06F6EB4042EA06056D42984156
:1031700061F100010DE062FA06F5F240554063FA94
:1031800006FC82EA0C02F3405A406D42904161EB2A
:10319000030111F4801F05D1641E620502D06D0089
:1031A0004041494121F48011430875F1004350F139
:1031B000000041EB045170BC70471CEB410F15D26D
:1031C00023F0004352EA43060BD04FEA4C0CBCEB11
:1031D000410F04D80C0D661E342EB7DDEBE7801AC4
:1031E000994150EA410608BF0021E4E708BF1CEB03
:1031F000430F28BF6FF00001DDE7000080B500F04D
:1032000007F8024A11001820ABBEFBE726000200B7
:1032100080B500F054F802000023DB4310689842A8
:1032200004D011000220ABBE00201060506898420C
:1032300004D0111D0220ABBE0020506001BD000073
:10324000F0B583B0040000F03AF8A10047183D68DB
:103250000026F643B54216D100F01AF83D68B54293
:103260000FD100BF09A00090002C01D1002000E088
:10327000042001900320029069460120ABBE0500A6
:103280003D6000F014F8280003B0F0BD3A747400FB
:103290000C480121BFF35F8FD0E84F3FC0E8421FC9
:1032A000002AF9D1BFF35F8F002BF3D17047054897
:1032B000BFF35F8F00210170BFF35F8F704702483B
:1032C00070470000E20000200000002030B403003E
:1032D00000229868400101D500200AE098680001AA
:1032E00001D5012005E09868C00001D5022000E06A
:1032F00004200200D2B2042A00F084800200D2B27C
:1033000012011A44D2F8802112F001020400E4B242
:1033100024011C44C4F880210A7A002A11D1020039
:10332000D2B212011A44D2F880210C684D7A55EAC3
:1033300044552A430400E4B224011C44C4F880210B
:1033400012E00200D2B212011A44D2F880414A6857
:103350000D7A55EAC2054A7A15432C430200D2B2CF
:1033600012011A44C2F880418A7A12F00F028A725E
:103370000200D2B212011A44D2F8842112091201B9
:103380000400E4B224011C44C4F884210200D2B237
:1033900012011A44D2F884418A7A14430200D2B24C
:1033A00012011A44C2F884418A7B4C7B240454EAFB
:1033B00002640A7B54EA0224CA7A14430200D2B29D
:1033C00012011A44C2F888418A7C4C7C240454EAD5
:1033D00002640A7C54EA0224CA7B14430200D2B27B
:1033E00012011A44C2F88C410200D2B212011A44EE
:1033F000D2F8802152F001020400E4B224011C44FE
:10340000C4F88021C0B230BC704710B40200002361
:103410000800C0B2002803D002280BD005D30EE06C
:103420009468DFF87C0104400AE09468DFF87401D6
:10343000044005E09468DFF87001044000E00024D7
:103440002000002816D0DFF86431C01A14D0801E86
:1034500018D0DFF85C31C01A10D04FF40073C01AD6
:1034600012D0DFF85031C01A0AD05FF40033C01A0E
:103470000CD00DE002200CE000200AE0002008E063
:10348000002006E0012004E0012002E0012000E02D
:103490000020C0B210BC70470B00DBB21B0103441C
:1034A000D3F8B03113F004031372137A002B08D150
:1034B0000B00DBB21B010344D3F8B0315B0D13608A
:1034C00007E00B00DBB21B010344D3F8B031DB088B
:1034D00053600B00DBB21B010344D3F8B03113F08F
:1034E000020353720B00DBB21B010344D3F8B43167
:1034F00013F00F0393720B00DBB21B010344D3F8EC
:10350000B4311B0AD3740B00DBB21B010344D3F8A4
:10351000B831D3720B00DBB21B010344D3F8B831CE
:103520001B0A13730B00DBB21B010344D3F8B83141
:103530001B0C53730B00DBB21B010344D3F8B831EF
:103540001B0E93730B00DBB21B010344D3F8BC3199
:10355000D3730B00DBB21B010344D3F8BC311B0A4D
:1035600013740B00DBB21B010344D3F8BC311B0CFA
:1035700053740B00DBB21B010344D3F8BC311B0EA8
:1035800093740B00DBB2002B04D1C36853F020030B
:10359000C36003E0036953F0200303617047000038
:1035A00003000004000300080000031001000004F1
:1035B000FD00000400FD000810B4002204883F4B09
:1035C00098420ED0434A90420BD0B0F1804F08D0C1
:1035D0003B4A904205D03B4A904202D03A4A904240
:1035E00004D14FF68F7214404A881443374A9042F0
:1035F00007D0374A904204D04FF6FF4214400A8960
:10360000144304804A68C2620A880285984202D044
:10361000304A904201D18A7A02860122828210BC0D
:1036200070470A00D2B2002A04D0028852F0010288
:10363000028004E003884FF6FE7213400380704757
:10364000F0B4002600275FF0000C038C4FF6FE72EA
:1036500013400384058C8388048B4FF68F721440CB
:103660004FF6FC7214400A8814434FF6FD72154061
:103670008A8915434A881543104A904202D0154A58
:10368000904213D14FF6F7721540CA8915434FF691
:10369000FB7215408A8815434FF6FF6213404FF6C0
:1036A000FF5213400A8A13434A8A134383800483D8
:1036B0008A6842630584F0BC704700000000014046
:1036C0000004004000080040000C004000100040D2
:1036D00000140040000401404163704710B400230F
:1036E000048B4FF6F77214400C43048310BC7047F0
:1036F0001300DBB2002B03D083890B43838102E0EC
:1037000083898B4383817047F0B402000023002635
:103710000024178A0F4095890D40380080B2002898
:1037200005D0280080B2002801D0012000E0002050
:10373000C0B2F0BC70470A0092B2D2430282704716
:1037400080B53C48016851F4700101603A4908684D
:1037500050F0010008600020384A10600A683848BC
:1037600002400A603748384A1060086830F4802008
:10377000086000203549086000F005F85FF000603F
:103780003349086001BD82B0002001900020009004
:103790002949086850F480300860086810F4003047
:1037A00000900198401C01900098002803D10198D6
:1037B000B0F5A04FF1D10868800302D50120009038
:1037C00001E000200090009801282FD121480268D4
:1037D00052F0805202602048026852F44042026077
:1037E000164802680260026852F4004202600268F1
:1037F00052F4A0520260194A134B1A600A6852F040
:1038000080720A600A689201FCD540F20571144A80
:1038100011600168890889000160016851F00201A6
:103820000160016811F00C010829FAD102B070475B
:103830000000000088ED00E0003802400838024037
:10384000FFFFF6FE10300024043802400C3802401E
:1038500008ED00E040380240007000401954400775
:10386000003C024018B58BB001210220FDF77FFD1E
:1038700001210220FDF76DFD1020019002208DF83E
:10388000080000208DF80A0000208DF80B000320AE
:103890008DF809002F4C01A92000FDF7DBFD022265
:1038A00004212000FDF741FE0020ADF814000020A7
:1038B000ADF80E0040F2E73004900720ADF80C00A0
:1038C000254C03A92000FFF777FE012201212000EB
:1038D000FFF70EFF1D208DF8000001208DF803007A
:1038E00001208DF8010003208DF802006846FDF7E5
:1038F00052FE7020ADF818000220ADF8240001201F
:10390000ADF81A0006A92000FFF79AFE0821200052
:10391000FFF7E4FE01212000FFF783FE6321200072
:10392000FFF7DAFE0CB010BD10B50B4C01212000E2
:10393000FFF7EAFE01280CD14FF400410748FDF7DC
:10394000EEFD07480178491C017001212000FFF7B6
:10395000F2FE10BD000402400004004000180240C6
:10396000DC00002000B585B06A4600212948FFF739
:1039700093FD08210DF10B0000F002F805B000BD29
:103980002DE9F04385B004000D00002012210091C4
:103990001221019100218DF8081000218DF80910E5
:1039A0008DF80A50002630002900C9B280B289B2D1
:1039B000884209D2300080B2205C6946320092B25F
:1039C0001144C872761CEEE7DFF848906946484615
:1039D000FFF77CFC07005FF000083900C9B24846D9
:1039E000FFF713FD002808D1404680B240F6FF7172
:1039F000884202DA18F10108EFE7404680B240F64B
:103A0000FF71884201DB012000E0002005B0BDE825
:103A1000F083000000640040FEB504000D001600B5
:103A20001F0000200190FDF721FC0120FDF749FC5B
:103A30001C48006810F002000190019802282FD164
:103A40001948016851F0805101601848016851F42B
:103A5000404101600020FDF760FC4FF48050FDF70D
:103A60006EFC4FF4A050FDF761FC009733002A0074
:103A700021000020FDF72BFC0120FDF739FC392047
:103A8000FDF79FFC0028FAD040F205700849086055
:103A90000220FDF733FCFDF73AFC0828FBD100E0DB
:103AA000FEE7F7BD00380240403802400070004099
:103AB000003C024080B5072304224FF4A871102077
:103AC000FFF7AAFF01BD000038B5114C012120000D
:103AD000FFF71AFE012818D10E4D288840F2E73171
:103AE000884207DB4FF400410B48FDF718FD00202A
:103AF000288002E02888401C288008480178491C5A
:103B0000017001212000FFF716FE31BD000000000A
:103B100000000140D600002000180240E100002013
:103B200080B502215FF08040FFF7EEFD012808D14B
:103B30000C480178491C017002215FF08040FFF7BA
:103B4000FAFD01215FF08040FFF7DEFD012808D17A
:103B500005480188491C018001215FF08040FFF782
:103B6000EAFD01BDD8000020D400002080B5FFF799
:103B7000A1FF4FF4A060FDF709FD00F015F8FFF775
:103B800071FEFCF764FB002803D00548FDF75AFBE3
:103B9000F7E7FCF7F9FA03480178491C0170FAE7E6
:103BA000103F0008DB000020E0B501214020FDF7B8
:103BB000D0FB01208DF8040000208DF806004FF4A2
:103BC0000040009000208DF8070003208DF80500CC
:103BD00069460248FDF73EFC07BD00BF00180240E1
:103BE000CA05D20D828070478088C005C00D70471D
:103BF00002000023080080B2B0F5007F1088084260
:103C000001D0012000E00020C0B270470A0092B24B
:103C100092050A0092B2D2430280704770B50C4DF3
:103C200040F2255631002800FFF7E2FF00280DD0B2
:103C300031002800FFF7EAFF2800FFF7D5FF040056
:103C40002100C9B289B22800FFF7CAFF70BD000089
:103C500000100140074A904201D2074A00E0074A9B
:103C60008B0003D5064B0B40D36002E0044B0B40A6
:103C7000936070471064024000600240006402409C
:103C80007D0F7D0F30B450F8041B79B10268436892
:103C900002440830DC0744BFA9F10104E31852F8DC
:103CA000045B43F8045B091FF9D1ECE730BC7047B3
:103CB00010B5074979441831064C7C44163404E0A9
:103CC0000A68081D114488470146A142F8D110BD79
:103CD00094000000B400000080B5012000F00EF850
:103CE000012806D1012000F014F803480178491C8E
:103CF000017001BD00000000DA0000200100002278
:103D000006480068084201D0012000E00020C0B24F
:103D1000704702490860704700000000143C0140F1
:103D20004EF68851CEF20001086840F47000086039
:103D3000BFF34F8FBFF36F8F4FF00070E1EE100AAB
:103D4000704718B583B003001400009301910294EA
:103D500069460520ABBE01221900201AAFF300808E
:103D600004B010BDABE7FFFFD4000000100000203E
:103D70000000000011FFFFFF0C0000002003000006
:103D8000000000200000000080B505480178491CB3
:103D9000017004490148FFF75DFF01BD286402403E
:103DA000D90000200008001080B58DF80000012225
:103DB0006946012000F008F8012802D19DF80000B2
:103DC00002BD4FF0FF3002BD80B5002802D400F0E4
:103DD00003F802BD002002BD80B5002901D10020FA
:103DE00002BD012801D0022802D100F004F802BD72
:103DF000FFF7A7FF02BD30B583B00C00150001200E
:103E0000FFF71EFA00900194029569460520ABBEAB
:103E1000281A03B030BD000000F00DF8002801D0D2
:103E2000FFF746FFAFF300800020AFF30080FFF7FD
:103E30009DFE00F002F80120704700F001B800007C
:103E400007463846FFF7DAF9FBE700004361726482
:103E5000204D616E75666163747572657249443A8E
:103E600025640D0A000000004361726420547970DB
:103E7000653A534453432056312E310D0A00000059
:103E80004361726420547970653A53445343205619
:103E9000322E300D0A0000004361726420547970A4
:103EA000653A534448432056322E300D0A00000034
:103EB0004361726420547970653A4D4D43204361EB
:103EC00072640D0A00000000436172642043617057
:103ED00061636974793A2564204D420D0A0000003F
:103EE0004361726420426C6F636B53697A653A2553
:103EF000640D0A0D0A00000038B504460D46284638
:103F0000FFF752FFA84218BF0024204632BD000030
:103F10005344206361726420696E69742065727213
:103F20006F72000043617264205243413A25640D70
:103F30000A00000001488047014800474137000857
:103F4000453F0008AFF30080FFF7EAFEFFF764FF8C
:103F5000FFF7FEBFFFF7FEBFFFF7FEBFFFF7FEBF95
:103F6000FFF7FEBFFFF7FEBFFFF7FEBFFFF7FEBF85
:103F7000FFF7FEBFFFF7FEBFFFF7FEBFFFF7FEBF75
:103F8000FFF7FEBFFFF7FEBFFFF7FEBFFFF7FEBF65
:103F9000FFF7FEBFFFF7FEBFFFF7FEBFFFF7FEBF55
:103FA000FFF7FEBFFFF7FEBFFFF7FEBFFFF7FEBF45
:103FB000FFF7FEBFFFF7FEBFFFF7FEBFFFF7FEBF35
:103FC000FFF7FEBFFFF7FEBFFFF7FEBFFFF7FEBF25
:103FD000FFF7FEBFFFF7FEBFFFF7FEBFFFF7FEBF15
:103FE000FFF7FEBFFFF7FEBFFFF7FEBFFFF7FEBF05
:103FF000FFF7FEBFFFF7FEBFFFF7FEBFFFF7FEBFF5
:10400000FFF7FEBFFFF7FEBFFFF7FEBFFFF7FEBFE4
:10401000FFF7FEBFFFF7FEBFFFF7FEBFFFF7FEBFD4
:10402000FFF7FEBFFFF7FEBFFFF7FEBFFFF7FEBFC4
:10403000FFF7FEBFFFF7FEBFFFF7FEBFFFF7FEBFB4
:10404000FFF7FEBFFFF7FEBFFFF7FEBFFFF7FEBFA4
:10405000FFF7FEBFFFF7FEBFFFF7FEBFFFF7FEBF94
:10406000FFF7FEBFFFF7FEBFFFF7FEBFFFF7FEBF84
:10407000FFF7FEBFFFF7FEBFFFF7FEBFFFF7FEBF74
:10408000FFF7FEBFFFF7FEBFFFF7FEBFFFF7FEBF64
:10409000FFF7FEBFFFF7FEBFFFF7FEBFFFFFFFFF0B
:0840A000FFFFFFFF010000001B
:0400000508003F456B
:00000001FF
