:020000040800F2
:1000000000200010796900089D690008A1690008B6
:10001000A5690008A9690008AD6900080000000092
:10002000000000000000000000000000B1690008AE
:10003000B569000800000000B9690008BD69000842
:10004000C1690008C5690008C9690008CD690008D0
:10005000D1690008D569000805670008D96900085A
:10006000DD690008E1690008E5690008E969000840
:10007000ED690008F1690008F5690008F9690008F0
:10008000FD690008016A0008056A0008096A00089D
:10009000B56300080D6A0008116A0008156A0008B7
:1000A000196A0008C56500081D6A0008216A000871
:1000B0001D66000879630008256A0008296A00089F
:1000C0002D6A0008316A0008356A0008396A00089C
:1000D0003D6A0008A5660008416A0008456A0008F4
:1000E000496A00084D6A0008516A0008556A00080C
:1000F000596A00085D6A0008616A0008656A0008BC
:10010000696A0008F91A00086D6A0008716A000837
:10011000756A0008796A00087D6A0008816A00082B
:10012000856A0008BD670008896A00088D6A0008B2
:10013000916A0008956A0008996A00089D6A00089B
:10014000A16A0008A56A0008A96A0008AD6A00084B
:10015000B16A0008B56A0008B96A0008BD6A0008FB
:10016000C16A0008C56A0008C96A0008CD6A0008AB
:10017000D16A0008D56A0008D96A0008DD6A00085B
:10018000E16A0008E56A000810B5DFF8344A94F81F
:100190005600002805D002280DD007D303280FD021
:1001A00012E0DFF8200A02F0F5F80DE0DFF8180A97
:1001B00002F0F0F808E0DFF8140A02F0EBF803E0D0
:1001C000DFF80C0A02F0E6F894F82C10DFF8040AC5
:1001D00002F0E0F8B4F85410DFF8FC0902F0DAF8A5
:1001E000D4E91223120D42EA03321B151100DFF885
:1001F000EC0902F0CFF8216DDFF8B00C02F0CAF87C
:1002000010BD0020DFF8D81908600020DFF8D419ED
:1002100008600020DFF8D01908600020DFF8CC1952
:1002200008600020DFF8C81908600020DFF8C41952
:1002300008600020DFF8781C0860DFF8780CDFF831
:10024000781C08600020DFF8741C08607047FEB559
:10025000002500240121DFF8680C02F0AFF801212D
:100260004FF4006002F0C6F801214FF4006002F084
:10027000CFF84FF4F850019002208DF808000220CA
:100280008DF8090000208DF80A0001208DF80B0080
:10029000DFF8306C01A9300002F0D0F804200190A2
:1002A000DFF8247C01A9380002F0C8F80C220821EC
:1002B000300002F02EF90C220921300002F029F959
:1002C0000C220A21300002F024F90C220B2130000C
:1002D00002F01FF90C220C21300002F01AF90C2256
:1002E0000221380002F015F900214FF4006002F0FD
:1002F0008FF8FFF786FF31208DF8000000208DF881
:10030000010000208DF8020001208DF803006846EE
:1003100002F035F900F053F806003000C0B20028B2
:1003200002D100F064F906003000C0B2002804D108
:10033000DFF88C0800F013FA06003000C0B2002885
:1003400007D1DFF87C08B0F85400000400F025FC69
:1003500006003000C0B2002804D14FF4006000F065
:10036000DEFB06003000C0B2002804D0DFF85C0BD2
:100370000078032816D1DFF8481891F856000028B5
:1003800003D091F85600012802D10220040001E0B8
:10039000002004002000C0B200F007F8002000F0A8
:1003A000EEFB06003000C0B2FEBDDFF838381A6838
:1003B000120A12020100C9B20A431A6070472DE9FD
:1003C000F84F5FF000085FF0000B002500260024C6
:1003D00000200090DFF8F80AFF210175002101607C
:1003E00000214160002181600021C1600021016184
:1003F00002F004F9032002F016F9DFF8E8070168BB
:1004000051F48071016000273800C0B24A2817DA21
:10041000DFF8C00A002101600021416000218160F5
:100420000021C1604FF48061016102F004F901F024
:100430000FFC83465846C0B2002801D07F1CE3E77A
:100440005846C0B2002802D05846C0B2CDE0DFF80E
:10045000849A4FF4D570C9F800000820C9F8040048
:100460004020C9F808000020C9F80C004FF4806A49
:10047000C9F810A0484602F0DEF801F001FC804601
:100480004046C0B2002806D10120DFF8401A0870AB
:100490005FF0804000900020C9F800003720C9F8C4
:1004A00004004020C9F808000020C9F80C00C9F871
:1004B00010A0484602F0BFF8372001F005FC834643
:1004C0005846C0B2002858D1002C46D14FF6FF70D4
:1004D000864242D20020C9F800003720C9F8040043
:1004E0004020C9F808000020C9F80C00C9F810A085
:1004F000484602F0A0F8372001F0E6FB804640466F
:10050000C0B2002802D04046C0B26EE00099DFF8C9
:10051000C8090143C9F800102920C9F80400402087
:10052000C9F808000020C9F80C00C9F810A0484616
:1005300002F081F801F0F8FB83465846C0B200286B
:1005400002D05846C0B250E0DFF8900900680500BC
:100550002800C00F0400761CB6E74FF6FF708642F5
:1005600002D31B20C0B240E015F08045002D3AD0E8
:100570000220DFF85819087035E0002C28D14FF61A
:10058000FF70864224D2DFF85809C9F80000012024
:10059000C9F804004020C9F808000020C9F80C0080
:1005A000C9F810A0484602F046F801F0BDFB8346AA
:1005B0005846C0B2002802D05846C0B215E0DFF855
:1005C0001C09006805002800C00F0400761CD4E751
:1005D0004FF6FF70864202D31B20C0B205E0032015
:1005E000DFF8E81808705846C0B2BDE8F28F38B599
:1005F00000240120ADF8000002F018F8002802D114
:100600002520C0B2AAE0DFF8C458287804282AD0F0
:10061000DFF8C0080021016002214160C021816033
:100620000021C1604FF48061016102F004F801F023
:1006300093FB04002000C0B2002802D02000C0B20A
:100640008CE0DFF8E40BDFF8941809680160DFF84C
:10065000DC1B09684160DFF8D81B09688160DFF89E
:10066000D41B0968C1602878002808D028780128A0
:1006700005D02878062802D0287802281AD1DFF879
:100680005408002101600321416040218160002164
:10069000C1604FF48061016101F0CDFF6946032024
:1006A00001F085FB04002000C0B2002802D0200029
:1006B000C0B253E0287803281AD1DFF81808BDF833
:1006C0000010090401600321416040218160002184
:1006D000C1604FF48061016101F0ADFF01F03CFBAE
:1006E00004002000C0B2002802D02000C0B235E0D3
:1006F0002878042831D0BDF80000DFF83C1B0860E2
:10070000DFF8D007BDF8001009040160092141603D
:10071000C02181600021C1604FF48061016101F05E
:100720008AFF01F019FB04002000C0B2002802D0AB
:100730002000C0B212E0DFF8040BDFF8A017096850
:100740000160DFF8E81A09684160DFF8E41A096817
:100750008160DFF8E01A0968C160002032BD2DE930
:10076000F84F010000208DF801000024DFF85C57ED
:10077000287881F85600DFF8C00A0068A1F8540014
:10078000DFF8B80A0668360E3200D2B292090A7053
:10079000C6F383024A7016F003028A7007683F0CA2
:1007A000CF70D0F800C05FEA1C2C81F804C0D0F8EC
:1007B00000E081F805E0D0F804805FEA186842465E
:1007C000D2B21201CA80D0F804905FEA1949CB88EE
:1007D0004A46D2B21209D2B21343CB8019F00F02AB
:1007E0000A724268120A1300DBB2DB094B72C2F3D1
:1007F00080138B72C2F34013CB72C2F300130B73DE
:1008000000234B732B78002B05D02B78012B02D0C3
:100810002B78032B5DD11300DBB29B0213F44063F2
:100820000B61D0F804E00B697446E4B253EA840328
:100830000B61D0F808C05FEA1C6C0C696346DBB240
:100840009B09DBB21C430C61CCF3C2030B751CF09B
:1008500007034B7583681B0C1C00E4B264098C759C
:10086000C3F38204CC755C0014F006040C76846833
:10087000240A22000D7E1400E4B255EAD4150D7648
:100880000C69641C0025C1E912455FF0010AD1E939
:1008900012670C7EA41C1AFA04F4E517A4FB06895F
:1008A00004FB079905FB0699C1E9128991F90840F3
:1008B0001AFA04FAC1F850A0D1E912670C6D0025AC
:1008C000A4FB068904FB079905FB0699C1E9128977
:1008D00028E02B78022B25D146683300DBB21B04BD
:1008E00013F47C130B6187683F0E0B693C00E4B284
:1008F00053EA04230B61D0F808C05FEA1C4C0C6972
:100900006346DBB21C430C6183681B0A1A000B6947
:100910005B1C5FF40024A4FB0345C1E912454FF4BE
:1009200000730B65C2F380134B76530013F07E0304
:100930008B7683688DF800308B7E9DF80040E4B2A2
:1009400053EAD4138B769DF8003013F07F03CB76F7
:10095000C3681B0E1C00E4B2E4090C77C3F3411416
:100960004C77C3F382048C779C0014F00C04CC7792
:10097000C468240CCE7F2500EDB256EA9516CE77DA
:10098000C4F3401581F82050002581F8215014F05F
:10099000010581F82250C5682D0A2E00F6B2F6092D
:1009A00081F82360C5F3801681F82460C5F34016F2
:1009B00081F82560C5F3001681F82660C5F381062D
:1009C00081F8276015F0030681F82860C0688DF86B
:1009D00000009DF80000C0B2400881F82900012005
:1009E00081F82A00DFF840683068000E8DF80000BA
:1009F0009DF8000081F82C003068000C8DF8000094
:100A00009DF800000002C8853068000A8DF80000DB
:100A1000CF8D9DF800000743CF8530688DF800002A
:100A20009DF80000000608637068000E8DF8000055
:100A3000086B9DF8007050EA074008637068000C6E
:100A40008DF80000086B9DF8007050EA07200863DD
:100A50007068000A8DF800000F6B9DF800000743D6
:100A60000F6370688DF800009DF8000081F8340075
:100A7000B7683F0E81F83570D6F808E05FEA1E4E81
:100A80007046C0B200068863D6F808805FEA18286E
:100A9000886BC4465FFA8CFC50EA0C408863B068EF
:100AA0008DF80000886B9DF800C050EA0C20886328
:100AB000D6F80CC05FEA1C6CD1F838906046C0B222
:100AC00050EA0909C1F83890D6F80C905FEA194944
:100AD00091F83CA04846C0B25AEA101A81F83CA0EE
:100AE0004846C0B2000210F47060C887D6F80CA067
:100AF0005FEA1A2AB1F83EB05046C0B250EA0B0B7A
:100B0000A1F83EB0F6683000C0B2400881F840005D
:100B1000012081F841009DF80100BDE8F28F38B551
:100B200004000025DFF8A4130878032802D1272049
:100B3000C0B223E00878002805D00878012802D048
:100B40000878022818D1B4F5805F02D12720C0B2FE
:100B500014E02000C0B201F073F905002800C0B213
:100B6000002809D11F48016831F4C05101600168B3
:100B700021430160016801602800C0B232BD01005C
:100B80000020012901D0002903D1DFF8C02A11700B
:100B900001E026221000C0B2704710B50400CD4815
:100BA000046007214160402181600021C1604FF451
:100BB0008061016101F03FFD072001F085F810BD63
:100BC000682400209C680008B4680008CC6800080D
:100BD000E46800088068000868690008FC6800088C
:100BE000002C0140042C0140082C01400C2C014039
:100BF000242C0140282C01402DE9F14F82B0160031
:100C00001F0000208DF800005FF00008DDF808905C
:100C10005FF0FF352C000298002801D1262042E128
:100C20000020A3490860A9480078022807D14FF4A2
:100C30000070ADF83000760A46EAC7567F12DFF83A
:100C400010AA0020CAF808000020CAF80400CAF858
:100C500000500120CAF814000020CAF80C0000203F
:100C6000CAF81000504601F0FAFC9C480068800168
:100C700001D50E2017E1BDF83000002866D0BDF880
:100C8000300040F60101884260DABDF83000BDF85E
:100C90003010491E084259D1BDF8300001F05DFA0C
:100CA0008DF80100DFF82CB2BDF83000CBF8000061
:100CB0001020CBF804004020CBF808000020CBF82F
:100CC0000C004FF48060CBF81000584601F0B3FCE4
:100CD000102000F0F9FF8DF800009DF800000028BA
:100CE00002D09DF80000DEE09DF801000001CAF886
:100CF0000800BDF83000CAF80400CAF8005001200E
:100D0000CAF814000220CAF80C000020CAF810002B
:100D1000504601F0A4FCCBF800601120CBF8040091
:100D20004020CBF808000020CBF80C004FF4806086
:100D3000CBF81000584601F07EFC112000F0C4FFF3
:100D400005002800C0B2002802D104E02620AAE055
:100D50002800C0B2A7E0DFF8F4180878002862D1B4
:100D6000DFF8F008006840F22A6108421ED14FF413
:100D7000004001F08BFC002812D000208046B8F122
:100D8000080F07D2DFF8D008006849F8280018F1EA
:100D90000108F4E719F12009DFF8C0080400DFE7D3
:100DA000002C01D104207EE0641ED9E7082001F068
:100DB0006DFC002804D0082001F073FC042072E0D0
:100DC000022001F063FC002804D0022001F069FC3D
:100DD000022068E0202001F059FC002804D02020E7
:100DE00001F05FFC06205EE04FF4007001F04EFC65
:100DF000002805D04FF4007001F053FC072052E0AA
:100E00005FF4001001F042FC002807D0DFF848082A
:100E10000068C9F8000019F10409F1E740F2FF5039
:100E200001F03FFC3DE0087801283AD1DFF830A816
:100E300000208AF800000020DFF828180870DFF88A
:100E400028B800208BF800001C490A6840F22A30BC
:100E500002430A601648016851F00801016000224F
:100E6000BDF83010029801F084F9DFF8780C0068C2
:100E700000010BD49BF80000002807D19AF800006D
:100E8000002803D1002C01D0641EEEE7002C01D114
:100E9000042008E09AF80000002802D09AF8000028
:100EA00005002800C0B2BDE8FE8F000014690008EC
:100EB0002C2C0140FF07C000382C01403C2C014085
:100EC0000C00400000080240000C02404C250020AD
:100ED000C0240020F024002000001080142C0140C9
:100EE0000080FF802DE9F14F0FB40E9D00208DF89A
:100EF000010000265FF0FF34DFF8EC8B0498C8F89F
:100F000000000020DFF8E41B0860CD4800780228CC
:100F10000AD14FF400700500DDE90201400A40EA01
:100F2000C1504912CDE90201DFF824A70020CAF818
:100F300008000020CAF804005FF0FF3BCAF800B0C8
:100F40000120CAF814000020CAF80C000020CAF8DA
:100F50001000504601F083FBDFF8940B006880011D
:100F600001D50E205DE1280080B2002836D028008F
:100F700080B240F60101884230DA681E290089B249
:100F800001422BD1280080B201F0E7F88DF8000073
:100F9000DFF8609B280080B2C9F800001020C9F873
:100FA00004004020C9F808000020C9F80C004FF4E4
:100FB0008060C9F81000484601F03DFB102000F0A9
:100FC00083FE07003800C0B2002802D03800C0B24B
:100FD00027E10F980228C0F0228101E0262020E1BD
:100FE0000F99280080B24143B1F1007F01D3262040
:100FF00017E19DF800000001CAF808000F992800C9
:1010000080B24143CAF80410CAF800B00120CAF8FF
:1010100014000220CAF80C000020CAF81000504644
:1010200001F01DFBDDE90201C9F800001220C9F83A
:1010300004004020C9F808000020C9F80C004FF453
:10104000806AC9F810A0484601F0F5FA122000F0B5
:101050003BFE07003800C0B2002802D03800C0B202
:10106000DFE0DFF8E8150878002840F09680DFF828
:10107000E405006840F22A31084221D14FF40040D3
:1010800001F004FB002815D000200600082E08D22D
:10109000DFF8C4050068D8F8001041F82600761C77
:1010A000F4E7D8F800002030C8F80000DFF8AC05FD
:1010B0000400DCE7002C01D10420B2E0641ED6E776
:1010C000082001F0E3FA002804D0082001F0E9FA32
:1010D0000420A6E0022001F0D9FA002804D0022062
:1010E00001F0DFFA02209CE0202001F0CFFA002876
:1010F00004D0202001F0D5FA062092E04FF40070D1
:1011000001F0C4FA002805D04FF4007001F0C9FACC
:10111000072086E05FF4001001F0B8FA00280BD039
:10112000DFF834050068D8F800100860D8F800002F
:10113000001DC8F80000EDE74FF4807001F0A6FA3A
:10114000002825D03E490878002805D008780128D5
:1011500002D0087802281BD10020C9F800000C201A
:10116000C9F804004020C9F808000020C9F80C00A4
:10117000C9F810A0484601F05EFA0C2000F0A4FD6A
:1011800007003800C0B2002802D03800C0B248E0E2
:1011900040F2FF5001F085FA41E0087801283ED185
:1011A000DFF8BC84002088F800000120DFF8B414C8
:1011B0000870DFF8B494002089F80000DFF8AC1460
:1011C0000A6840F22A3002430A60DFF82009016809
:1011D00051F00801016000220F99280080B24143BC
:1011E000049800F0C6FFDFF8FC080068000103D493
:1011F000002C01D0641EF6E7002C01D1042010E081
:1012000099F80000002803D198F800000028F7D0D2
:1012100098F80000002802D098F800000700380075
:10122000C0B205B0BDE8F08F14250020182C014095
:101230001C2C0140202C01403425002004250020D6
:101240004C2500202DE9F14F0CB484B000208DF81E
:10125000000000208DF8020000208DF80100002021
:10126000039000240020029000250026BDF84000D5
:101270000190069F0698002801D12620E2E1002077
:10128000DFF868180860DFF8C8830020C8F8080095
:101290000020C8F804005FF0FF30C8F8000001200B
:1012A000C8F814000020C8F80C000020C8F810008E
:1012B000404601F0D4F9DFF838080068800101D514
:1012C0000E20BFE1DFF8740B007802280BD14FF439
:1012D0000070ADF84000DDE90401400A40EAC15069
:1012E0004912CDE90401BDF84000002851D0BDF8F5
:1012F000400040F6010188424BDABDF84000BDF8DD
:101300004010491E084244D1BDF8400000F025FFBE
:101310008DF80200DFF8DC97BDF84000C9F8000046
:101320001020C9F804004020C9F808000020C9F8BE
:101330000C004FF4806BC9F810B0484601F07BF9FF
:10134000102000F0C1FC82465046C0B2002802D0F6
:101350005046C0B276E1DFF8A80B00680004C9F877
:1013600000000D20C9F804004020C9F80800002042
:10137000C9F80C00C9F810B0484601F05CF90D201E
:1013800000F0A2FC8DF800009DF80000002802D1BA
:1013900004E0262056E19DF8000053E1DFF85007F5
:1013A000006802905FF0FF3A0298C00529D4BAF1B4
:1013B000000F26D0BAF1010ADFF8440B00680004E0
:1013C000C9F800000D20C9F804004020C9F8080041
:1013D0000020C9F80C00C9F810B0484601F02BF9FC
:1013E0000D2000F071FC8DF800009DF80000002831
:1013F00002D09DF8000025E1DFF8F40600680290B5
:10140000D2E7BAF1000F01D129201BE1DDE9040187
:10141000C9F800001820C9F804004020C9F80800E5
:101420000020C9F80C00C9F810B0484601F003F9D3
:10143000182000F049FC8DF800009DF800000028FD
:1014400002D09DF80000FDE0DFF81892002089F836
:1014500000009DF802000001C8F80800BDF8400037
:10146000C8F804005FF0FF3BC8F800B00120C8F8DE
:1014700014000020C8F80C000020C8F810004046F6
:1014800001F0EDF8D8467149087800286ED171480E
:10149000006840F21A61084239D14FF4804001F0EF
:1014A000F5F800282BD00198001B202817D20198AE
:1014B000001B10F0030F03D1019E361BB60803E09A
:1014C000019E361BB608761C00200500B54212D2DC
:1014D0003868614908606D1C3F1D241DF6E7002037
:1014E0000500082D05D257F825005B4908606D1CE2
:1014F000F7E7203720347FF040408046C7E7B8F157
:10150000000F01D104209DE0B8F10108BFE70820D9
:1015100001F0BCF8002804D0082001F0C2F8042033
:1015200090E0022001F0B2F8002804D0022001F07F
:10153000B8F8022086E0102001F0A8F8002804D0B6
:10154000102001F0AEF805207CE04FF4007001F0AF
:101550009DF8002805D04FF4007001F0A2F8072094
:1015600070E040F2FF5001F09CF84EE0087801284E
:101570004BD1DFF8ECA000208AF80000002089F8A9
:101580000000DFF8E490002089F8000037490A687D
:1015900040F21A3002430A604022BDF8401006981B
:1015A00000F0E7FDDFF84405016851F00801016033
:1015B000DFF830050068000105D4B8F1000F02D053
:1015C000B8F10108F4E7B8F1000F03D1FEF73FFED0
:1015D000042037E0D84699F80000002809D19AF88D
:1015E0000000002805D1B8F1000F02D0B8F10108C1
:1015F000F1E7B8F1000F01D1042023E09AF80000D0
:10160000002802D09AF800001CE040F2FF5001F0E0
:1016100048F80DF1010000F075FC81464846C0B263
:1016200000280DD19DF80100072803D09DF8010086
:10163000062805D10DF1010000F064FC8146EDE7BC
:101640004846C0B207B0BDE8F08F00000802002095
:10165000D8240020342C0140802C0140FFFF7F0063
:101660004E2500204D2500204F2500203C2C014018
:101670002DE9F14F0FB400208DF8010000208DF806
:10168000020000208DF8000000240025002600271D
:101690000F99BDF8380041430191DDF8108004989E
:1016A000002801D1262019E20020DFF8401408604C
:1016B000DFF8ECBB0020CBF808000020CBF80400DA
:1016C0005FF0FF30CBF800000120CBF814000020C1
:1016D000CBF80C000020CBF81000584600F0BFFFFC
:1016E000DFF80C040068800101D50E20F6E1DFF878
:1016F0004C07007802280BD14FF40070ADF8380089
:10170000DDE90201400A40EAC1504912CDE9020177
:10171000BDF83800002838D0BDF8380040F6010187
:10172000884232DABDF83800BDF83810491E084248
:101730002BD1BDF8380000F010FD8DF80200DFF865
:10174000B493BDF83800C9F800001020C9F80400AF
:101750004020C9F808000020C9F80C004FF4806050
:10176000C9F81000484600F066FF102000F0ACFAFF
:1017700082465046C0B2002802D05046C0B2ADE109
:101780000F980228C0F08F8101E02620A6E10F9972
:10179000BDF838004143B1F1007F01D326209DE11F
:1017A000DFF898060078002807D0DFF89006017867
:1017B000012902D0007802283FD1DFF844070068F1
:1017C0000004C9F800003720C9F804004020C9F817
:1017D00008000020C9F80C004FF48060C9F8100020
:1017E000484600F028FF372000F06EFA8DF801001F
:1017F0009DF80100002802D09DF801006EE10F98CD
:10180000C9F800001720C9F804004020C9F80800F2
:101810000020C9F80C004FF48060C9F81000484659
:1018200000F009FF172000F04FFA82465046C0B280
:10183000002802D05046C0B250E1DDE90201C9F8EB
:1018400000001920C9F804004020C9F80800002051
:10185000C9F80C004FF48060C9F81000484600F049
:10186000EAFE192000F030FA82465046C0B2002845
:1018700002D05046C0B231E19DF802000001CBF821
:1018800008000F99BDF838004143CBF804105FF011
:10189000FF30CBF800000120CBF814000020CBF87B
:1018A0000C000020CBF81000584600F0D8FEDFF8FE
:1018B000A81A0878002840F0A5805FF0FF300400E7
:1018C000DFF8980A006840F21A3108423CD14FF420
:1018D000804000F0DBFE002830D00198401B20281B
:1018E0001AD20198401B10F0030F03D1019F7F1BF8
:1018F000BF0803E0019F7F1BBF087F1C002006007C
:10190000BE4217D2D8F80000DFF8541A0860761CDF
:1019100018F104082D1DF3E700200600082E06D25A
:1019200058F82600DFF8381A0860761CF6E718F138
:10193000200820357FF040400400C1E7002C01D191
:101940000420CBE0641EBBE7082000F09FFE0028C7
:1019500004D0082000F0A5FE0420BFE0022000F023
:1019600095FE002804D0022000F09BFE0220B5E086
:10197000102000F08BFE002804D0102000F091FE13
:101980000520ABE04FF4007000F080FE002805D089
:101990004FF4007000F085FE07209FE04FF4807048
:1019A00000F074FE002828D0DFF890140878002892
:1019B00005D00878012802D0087802281DD100201F
:1019C000C9F800000C20C9F804004020C9F808003C
:1019D0000020C9F80C004FF48060C9F81000484698
:1019E00000F029FE0C2000F06FF982465046C0B28C
:1019F000002802D05046C0B270E040F2FF5000F024
:101A000050FE50E0087801284DD1DFF858B9002089
:101A10008BF800000120DFF8501908700020DFF873
:101A20004C190870DFF848190A6840F21A3002436E
:101A30000A6040220F99BDF838004143049800F035
:101A400098FB2A48016851F0080101605FF0FF30FF
:101A5000814624490968090105D4B9F1000F02D073
:101A6000B9F10109F5E7B9F1000F03D1FEF7EFFB7A
:101A7000042033E00400DFF8F4080078002807D1E0
:101A80009BF80000002803D1002C01D0641EF2E76F
:101A9000002C01D1042021E09BF80000002802D096
:101AA0009BF800001AE040F2FF5000F0FAFD684693
:101AB00000F028FA81464846C0B200280CD19DF8B3
:101AC0000000072803D09DF80000062804D16846CE
:101AD00000F018FA8146EEE74846C0B205B0BDE80E
:101AE000F08F000000640240382500202C2C0140BB
:101AF000142C0140F024002080B500F001F801BD55
:101B000080B54FF4807000F0C1FD002833D0DFF8BD
:101B100058080078012815D1DFF858080021016025
:101B20000C214160402181600021C1604FF480613F
:101B3000016100F080FD0C2000F0C6F8DFF82418E9
:101B4000087003E00020DFF81C180870DFF8280890
:101B5000016851F480710160DFF814180A68DFF839
:101B60001C0802400A600120DFF800180870DFF846
:101B7000F40700786BE0022000F088FD00280FD009
:101B8000022000F08EFDDFF8E8170A68DFF8EC07A6
:101B900002400A600220DFF8CC170870022056E0ED
:101BA000082000F073FD00280FD0082000F079FD18
:101BB000DFF8BC170A68DFF8C40702400A60042097
:101BC000DFF8A0170870042041E0202000F05EFD3F
:101BD00000280FD0202000F064FDDFF894170A6879
:101BE000DFF8980702400A600620DFF878170870CF
:101BF00006202CE0102000F049FD00280FD0102016
:101C000000F04FFDDFF868170A68DFF87007024040
:101C10000A600520DFF84C170870052017E04FF424
:101C2000007000F033FD002810D04FF4007000F079
:101C300038FDDFF83C170A68DFF8400702400A6009
:101C40000720DFF820170870072000E0002002BD01
:101C500038B500255FF480342000441E002804D0ED
:101C6000802000F013FD0028F6D0002C01D10320C5
:101C700005E040F2FF5000F014FD2800C0B232BD74
:101C8000F8B500265FF480342000441E002806D0FA
:101C9000DFF8C8060068050015F0450FF4D0002CE9
:101CA00001D0680706D50327042000F0FAFC3800AD
:101CB000C0B208E0680604D500200600402000F00D
:101CC000F0FC3000C0B2F2BD38B50400DFF88C067D
:101CD0000068050015F0450FF8D0042000F0D6FC90
:101CE000002804D0042000F0DCFC03201BE00120CD
:101CF00000F0CCFC002804D0012000F0D2FC012030
:101D000011E0DFF87C0600682100C9B2884201D0EA
:101D1000102008E040F2FF5000F0C3FCDFF864063A
:101D2000006810F0080032BD10B5DFF8300600681A
:101D3000040014F0450FF8D0042000F0A7FC0028A0
:101D400004D0042000F0ADFC032004E040F2FF507A
:101D500000F0A7FC002010BDF8B500265FF4803429
:101D60002000441E002806D0DFF8F00500680500BA
:101D700015F0450FF4D0002C01D0680706D50327D5
:101D8000042000F08EFC3800C0B20FE0012000F00B
:101D90007DFC002804D001200600012000F081FC19
:101DA00040F2FF5000F07DFC3000C0B2F2BDF8B54B
:101DB00005000E000027DFF8A4050068040014F0F9
:101DC000450FF8D0042000F061FC002804D0042066
:101DD00000F067FC032030E0012000F057FC0028F1
:101DE00004D0012000F05DFC012026E0DFF8900522
:101DF00000682900C9B2884201D010201DE040F2DD
:101E0000FF5000F04EFCDFF87C05016811F4604FD4
:101E100005D10800000C30803800C0B20DE0880405
:101E200001D5132009E0480401D5102005E008047D
:101E300001D50F2001E03800C0B2F2BD4C250020D2
:101E40002DE9FE4304000027684600210022C0E976
:101E5000001200212000C0B2002801D0022500E0BD
:101E60000025DFF820050068800101D50E2044E040
:101E7000DFF88C806946D8F8000080B200F08FF857
:101E800006003000C0B2002802D03000C0B234E0FA
:101E90000198400330D5DFF8DC74D8F80000000466
:101EA0003860372078604020B8600020F8604FF438
:101EB0008069C7F81090380000F0BDFB3720FFF7AD
:101EC00003FF80464046C0B2002802D04046C0B260
:101ED00013E02800C0B23860062078604020B86067
:101EE0000020F860C7F81090380000F0A4FB06202E
:101EF000FFF7EAFEC0B200E02520BDE8FE83000047
:101F0000342500201CB50400002001900020009022
:101F1000DFF86004DFF870140968090401600D211E
:101F20004160402181600021C1604FF48061016106
:101F300000F081FBDFF8240401680091009911F0A2
:101F4000450F02D101680091F8E7012000F09EFBE7
:101F5000002804D0012000F0A4FB01201EE0042092
:101F600000F094FB002804D0042000F09AFB03202A
:101F700014E0DFF80C0400680D2801D010200DE0FB
:101F800040F2FF5000F08DFBDFF8F803006801908D
:101F90000198400A10F00F002070002016BD2DE9B6
:101FA000FC4704000D0000265FF0000A684600218F
:101FB0000022C0E90012DFF8BC830820C8F8000046
:101FC0001020C8F804004020C8F808000020C8F815
:101FD0000C004FF48069C8F81090404600F02BFBCD
:101FE0001020FFF771FE07003800C0B2002802D0B1
:101FF0003800C0B2AFE0DFF8900300680004C8F812
:1020000000003720C8F804004020C8F8080000206D
:10201000C8F80C00C8F81090404600F00CFB3720C0
:10202000FFF752FE82465046C0B2002802D050460A
:10203000C0B290E09A485FF0FF3101600821416032
:10204000302181600221C1600021016101214161D3
:1020500000F005FB0020C8F800003320C8F8040099
:102060004020C8F808000020C8F80C00C8F81090FC
:10207000404600F0E0FA3320FFF726FE0700380064
:10208000C0B2002802D03800C0B264E0B348006893
:1020900040F22A6108420DD15FF4001000F0F6FA18
:1020A0000028F3D0AE480068694641F82600761C47
:1020B000022EEBD3082000F0E9FA002804D0082013
:1020C00000F0EFFA042046E0022000F0DFFA0028DA
:1020D00004D0022000F0E5FA02203CE0202000F0CD
:1020E000D5FA002804D0202000F0DBFA062032E0E8
:1020F0004FF4007000F0CAFA002805D04FF40070C9
:1021000000F0CFFA072026E040F2FF5000F0C9FAB5
:1021100000980099090211F47F0151EA00610098CA
:10212000000A10F47F400143009851EA1061696091
:10213000684641684268120212F47F0252EA016264
:102140004168090A11F47F410A43406852EA10626B
:102150002A603800C0B2BDE8F687010000200A00FE
:1021600092B2012A03D089B24908401CF7E7C0B2F5
:102170007047F0B58FB004000D001600834F380093
:1021800000F08CFB0028F9D1380000F0A1FA5FF0D4
:102190000060009072480190029403960020049021
:1021A000002005904FF4806006904FF48050079017
:1021B0004FF480400890002009905FF440300A906E
:1021C00004200B9003200C905FF400000D905FF44E
:1021D00000100E906946380000F01CFB20213800EA
:1021E00000F050FB0121380000F03EFB0FB0F0BDC5
:1021F0002DE9F84F84B005008A46904600265046E7
:102200000021490241EAD0514002CDE9020115F016
:102210000300002825D00020040020004146C0B261
:10222000C9B2884237D25A4F4FF400700090DDE9AE
:1022300002232000C0B24FF400714843C1171218A6
:102240004B413800FEF7D8FC06004FF40079AB464E
:102250004A463900584600F071FB15F50075641CBC
:10226000DBE74046C0B2012809D14FF4007000906E
:10227000DDE902232800FEF7BFFC06000BE0404624
:10228000C0B201904FF400700090DDE902232800F5
:10229000FEF728FE06003000C0B205B0BDE8F08FA2
:1022A000D82400202DE9F84F84B005008A469146D5
:1022B0005FF0000850460021490241EAD051400237
:1022C000CDE9020115F00300002826D0002004000B
:1022D00020004946C0B2C9B2884238D24FF40076D5
:1022E00001952B4FBB4632000199584600F026FB62
:1022F0004FF400700090DDE902232000C0B24FF4DB
:1023000000714843C11712184B413800FEF79AFF7D
:10231000804615F50075641CDAE74846C0B201280E
:1023200009D14FF400700090DDE902232800FEF788
:1023300089FF80460BE04846C0B201904FF4007020
:102340000090DDE902232800FFF792F9804640461D
:10235000C0B205B0BDE8F08F08020020342C014067
:10236000802C01404E2500204D2500204F250020C7
:102370003C2C0140F0240020382C0140C53CFFFFDC
:10238000102C0140142C01403425002058640240D8
:10239000642200200EB4C0B5024603A800210190BB
:1023A000009101AB0121044878440C3000F036FB69
:1023B00006BC5DF810FB00BF754500000A00D2B2F4
:1023C000002A04D0194A13680343136003E0174A34
:1023D00013688343136070470A00D2B2002A04D006
:1023E000134A13680343136003E0114A13688343DD
:1023F000136070470A00D2B2002A04D00D4A136855
:102400000343136003E00B4A136883431360704770
:102410000A00D2B2002A04D0074A136803431360AB
:1024200003E0054A13688343136070473038024065
:10243000403802404438024024380240F0B50022BF
:10244000002300240025102D5CD2012616FA05F287
:1024500013000A681A4014009C4251D103270268F5
:10246000AC465FFA8CFC5FEA4C0C17FA0CFC32EAC3
:102470000C020260D0F800C091F804E02A00D2B249
:1024800052001EFA02FE5EEA0C0CC0F800C00A7987
:10249000012A02D00A79022A22D18268AC465FFA68
:1024A0008CFC5FEA4C0C17FA0CFC32EA0C028260DE
:1024B000D0F808C091F805E02A00D2B252001EFA06
:1024C00002FE5EEA0C0CC0F808C04268AE4032EA78
:1024D0000606466042688E79AE40B6B2324342602C
:1024E000C6682A00D2B25200974036EA0707C76092
:1024F000C668CF792A00D2B2520097403E43C660E8
:102500006D1CA0E7F0BD43690A0092B253404361DD
:102510007047F0B5002400251300DBB211F0070668
:10252000F6B2B60013FA06F60B009BB2DB1000EB16
:1025300083070B009BB2DB1000EB8303D3F820C0B2
:102540005FF00F0E11F00703DBB29B001EFA03FED3
:102550003CEA0E0CC7F820C00B009BB2DB1000EB6E
:1025600083031B6A33430F00BFB2FF1000EB8707E2
:102570003B62F0BD1C4901431C4A11607047F0B436
:10258000002200230F24C178002920D017490968B0
:1025900011F4E061D1F5E061090AD1F104052B00E5
:1025A000E4B20C4145789D408678264035432D01A4
:1025B0002A000F4D0678AA550125067816F01F0649
:1025C000B5400C4E07787F1146F8275009E00121ED
:1025D000057815F01F05A940074D0678761145F8D6
:1025E0002610F0BC704700000000FA050CED00E07A
:1025F00000E400E000E100E080E100E030B400220F
:10260000294C236829490B40057D81680D434168A9
:102610000D43C1680D4301680D4301690D432B4310
:10262000236030BC7047224908607047204800682A
:1026300010F00300704730B4002201681D4B196090
:102640001D4C2368DB0ADB02456881680D43C168C5
:102650000D4301690D432B43236030BC704730B4F8
:1026600000220168154B19604168154B1960154C23
:10267000236833F0F7038568C1680D4301690D4392
:1026800041690D432B43236030BC70470100002299
:102690000D480068084201D0012000E00020C0B2CF
:1026A00070470A4908607047042C01400081FFFF11
:1026B000002C0140082C01400C2C0140242C01402E
:1026C000282C01402C2C0140342C0140382C014096
:1026D0000168490849000160002101600021416052
:1026E000002181600021C16000210161212141613F
:1026F000DFF8DC11884204D13D21DFF8D8211160D8
:1027000087E0DFF8D411884205D14FF47461DFF817
:10271000C42111607DE0DFF8C411884205D15FF467
:102720007411DFF8B021116073E0DFF8B411884252
:1027300005D15FF07461DFF89C21116069E0DFF87A
:10274000A411884205D1DFF8A011DFF8A0211160A3
:102750005FE0DFF89C11884205D1DFF89811DFF8BF
:102760008C21116055E0DFF89011884205D1DFF827
:102770008C11DFF8782111604BE0DFF8841188427A
:1027800005D15FF03D51DFF86421116041E0DFF8D1
:102790007411884204D13D21DFF86C21116038E0CA
:1027A000DFF86811884205D14FF47461DFF85821D1
:1027B00011602EE0DFF85811884205D15FF47411E2
:1027C000DFF84421116024E0DFF84811884204D189
:1027D0005FF074614C4A11601BE04F49884203D19D
:1027E00041494E4A116014E04D49884203D14149A4
:1027F0004A4A11600DE04B49884203D13F49474A9C
:10280000116006E04849884203D15FF03D51434AD8
:102810001160704770B400230468444A14400D6886
:10282000CA6815434A6915438A691543CA6915433D
:102830000A6A15434A6A15438A6A15434A6B154367
:102840008A6B15432C4304604569ED08ED00CE6AA0
:102850000A6B1643354345610A6942604A688260E3
:102860008A68C26070BC70470A00D2B2002A04D0E5
:10287000026852F00102026003E00268520852004E
:1028800002607047002904D0026852F02002026002
:1028900003E0026832F0200202607047010000226B
:1028A0000868C00701D5012000E00020C0B27047D1
:1028B000144A904201D21E4A00E01E4A8B0003D502
:1028C0001D4B0B40D36002E01B4B0B4093607047E5
:1028D00010600240086002402860024040600240F0
:1028E00058600240706002403D0000200C600240D1
:1028F00088600240400F0020A060024000003D20A0
:10290000B86002401064024008640240286402403B
:102910004064024058640240706402400C6402400B
:1029200088640240A0640240B86402403F801CF00A
:1029300000600240006402407D0F7D0F62B38B0790
:1029400008D0521E11F8013B00F8013B00F0248032
:102950008B07F6D1830740F0208000BF103A07D3E1
:1029600030B4B1E83810103AA0E83810F9D230BCD1
:10297000530724BFB1E80810A0E8081044BF51F87D
:10298000043B40F8043BD20724BF31F8022B20F867
:10299000022B44BF0B7803707047121F17D35B00E4
:1029A00009D151F8043B20F8023B1B0C121F20F800
:1029B000023BF6D20BE051F8043B00F8013B1B0A46
:1029C00020F8023B1B0C121F00F8013BF3D238BF6A
:1029D000121D521E24BF11F8013B00F8013BF8D82C
:1029E000704730B4002513E050F8042BD30744BFE0
:1029F000A9F101039A18091F042942F8045BFAD2CD
:102A000013468C0744BF15809B1CC90748BF1D7027
:102A100050F8041B0029E7D130BC70472DE9F04382
:102A20009FB000BF65A6269CDFF8E88A8DF83B4082
:102A3000029100240B944FF0FF37044691461D4647
:102A40000AE019F8011B0298A0470028029000F044
:102A5000A1800B98401C0B9099F8000050B12528DC
:102A6000EFD1002100220591069207910892099169
:102A70000A9203E00B98A5E041F0010119F8010F5B
:102A80002028F9D023280CD02B2804D02D2805D0BD
:102A9000302809D080E041F00201EFE741F0040165
:102AA000ECE741F00801E9E741F01001E6E70D929B
:102AB0000AE00D98404505DA00EB800002EB400289
:102AC000303A0D9209F1010999F80020A2F1300085
:102AD0000A28EED399F800002E2818BF0C9726D1AB
:102AE00019F8010F2A2808D12868286009F101097E
:102AF00050F8042B28600C9219E02D280CBF09F126
:102B00000109002000220C920BE040B90C9A4245CA
:102B100005DA02EB820203EB4203303B0C9309F12E
:102B2000010999F80030A3F130020A2AEDD3ADF87B
:102B30003810304699F8001000F084FE08B119F8FA
:102B4000010B8DF83A009DF83A00682805D199F8F4
:102B5000000068280CD1622106E06C2804BF99F8B7
:102B600000006C2804D171218DF83A1009F1010997
:102B700010A804902A4619F8013B6946204600F047
:102B800061F838B910AA6946204600F091F900288A
:102B90007FF562AF384615E02A2888D12A682A6076
:102BA00052F8040B2A6000280D9003D540420D9086
:102BB00041F0040109F101098CE70000686A6C74B6
:102BC0007A4C00001FB0BDE8F083622820D068284E
:102BD00011D06A2803D06C2827D0712825D1086825
:102BE000C01D20F007000860D0E90023083008600D
:102BF000194610467047002A0A680A60106803D018
:102C0000121D0A6000B217E0121D0A6080B217E0C0
:102C1000002A0A680A60106803D0121D0A6040B2D8
:102C20000AE0121D0A60C0B20AE0002A0A680A60BF
:102C3000106803D0121D0A60C1177047121D0A6088
:102C40000021704770B51C460D46B4F125002E6971
:102C5000114600F01B811C386AD0001F022867D97A
:102C6000133843D0093863D0801E16D0401E1ED0C2
:102C7000401E02285CD9001F19D0401F00F083803D
:102C8000401E33D0401E00F0CD80C01E00F0DC801E
:102C9000801E2BD0C01E29D0FEE06869421C6A61EC
:102CA0000A680A6052F8043B0A603354FEE095F863
:102CB0003A000122FFF789FFC5E90001002399428C
:102CC00004DA6869411C69612D220DE0288F8107B3
:102CD00004D56869411C69612B2205E0C00722D533
:102CE0006869411C6961202232541CE095F83A0061
:102CF0000022FFF76AFFC5E9000195F838000107D7
:102D000011D5D5E900230020834208BF82420AD0B2
:102D100044F02000782806D1686930213154401CE5
:102D2000421C6A613454214668693044E86087E097
:102D30000868C01D20F007000860D0E900230830B3
:102D40000860C5E90023D5E90001C80F04D068690F
:102D5000411C69612D220DE0288F810704D5686927
:102D6000411C69612B2205E0C00704D56869411C3C
:102D700069612022325468693044E860214628465F
:102D800000F0C8F992E005F13A02507820B14FF016
:102D9000FF340FF6502062E01078622808D06828CF
:102DA00024D06A2812D06C282ED071280ED02BE0A7
:102DB0000A680A6052F8040B0A6020B94FF0FF3429
:102DC0000FF638204BE0E96A01706FE00A680A608C
:102DD00052F8040B0A6020B94FF0FF340FF61C20A4
:102DE0003DE0EA6AD317C0E900235FE00A680A60A1
:102DF00052F8040B0A6020B94FF0FF340FF6FC10B4
:102E00002DE0E96A018051E00A680A6052F8040B7B
:102E10000A6020B94FF0FF340FF6E0101FE0E96AB6
:102E2000016043E00A680A6052F8040B0A6000215E
:102E300020F0000221F0FF33C5E90023EE60782185
:102E4000284600F0BBF831E00868086050F8044BF1
:102E50000860EC603CB94FF0FF340FF6B81000F09A
:102E6000FDFC201A70BD2E6B002E04D5204600F00C
:102E700015FD044608E032460021204600F02AFDF8
:102E8000002814BF041B3446AC610FE06869411C84
:102E900069612522325409E06969481C686125226C
:102EA0007254210002D0431C6B613454002070BD69
:102EB0002DE9FC410F46064690467A6B7869396ADF
:102EC000BC6A121AB869521A796A121AF869521A47
:102ED000121A97F83800141B41070FD42020002C39
:102EE0008DF800000ADD254601236A463946304642
:102EF00000F060FC00285DD16D1EF5D17B69424673
:102F00003946304600F056FC002853D130208DF869
:102F100000003D6A002D09DD01236A46394630462E
:102F200000F048FC002845D16D1EF5D1BB69FA6858
:102F30003946304600F03EFC00283BD130208DF869
:102F400000007D6A002D08DD01236A4639463046BF
:102F500000F030FC70BB6D1EF6D1F868B969FB69F2
:102F600042183946304600F025FC18BB30208DF859
:102F70000000BD6A002D08DD01236A46394630464F
:102F800000F018FCB0B96D1EF6D197F83800410773
:102F90000DD52020002C8DF8000008DD01236A46A5
:102FA0003946304600F006FC20B9641EF6D10020F8
:102FB000BDE8F6814FF0FF30BDE8F6812DE9FC4712
:102FC00007468C463E69BCF16F0F08BF082405D048
:102FD0004CF02000782814BF0A2410243C25D7E99F
:102FE0000023BCF1640F18BFBCF1690F90469946ED
:102FF00006D100218B4203DAD8F1000869EB4909B8
:103000004FF0000AD14508BFD0451FD1386BE8B951
:10301000082C4BD197F83800010747D530203B25C5
:1030200086F83B0042E000280ED597F8380000F003
:103030001400102808D17B6B7969386A5B1A1B1A57
:103040009A1A002AC8BF3A62BDE8F3878DF800C01B
:10305000404649462246E31700F08AFC3032D0B29F
:103060006D1E3A28019504DB9DF80000A0F1510186
:103070008A187255404649462246E31700F078FC0C
:1030800089468046D14508BFD04503D0F8687119FC
:103090008842DDD3082C09D197F83800010705D5FF
:1030A000705D302802D06D1E30207055C5F13C0295
:1030B000BA617119F960386B8242B4DA821A3A62E5
:1030C0004FF6EF70398F01403987BDE8F3872DE95E
:1030D000D04306460F4614464FF00008DFF83894F8
:1030E00012E0E00707D542464B463046394600F02D
:1030F00057FD06460F464046494642464B4600F0BD
:103100004FFD641080468946002CEAD1304639468E
:10311000BDE8D0832DE9F34F054641F020048DB082
:10312000D5E90089612C02AE09D0286B002848BF80
:10313000062003D408BF672C01D101202863D5E9FC
:10314000002358004015401C0ED119030CD0032059
:10315000A8619DF8381061391A2902D20FF2D061A6
:1031600011E00FF2D0610EE059004915491C0FD152
:1031700018030DD10320A8619DF8381061391A2970
:1031800014D30FF2B861E8680322FFF7D7FBD3E14D
:10319000194621F00043B3F5801F10460DD20027D9
:1031A000BB4208BFBA42019703D111E00FF2886118
:1031B000E9E701AA00F0C6FD0AE0DFF8607307EB5B
:1031C0001352DFF85C3301921940DFF8583319438A
:1031D000C5E90001612C0ED1E86830210170821C24
:1031E000EA609DF8381061290CBF782158214170A0
:1031F0006869801C6861D5E900AB2BF000430020B2
:103200002AF00002834204BF8242002300F05B8167
:10321000612C40F0AA80286B002847BF2121009133
:10322000401C0090009F7F1C40464946002200231E
:1032300000F0C0FDD94601998DF8082038BF89F00B
:103240000049091F002FD04601910DF1090040F3FC
:103250004981B349DFF8D0B20C9106464046494651
:103260000022002300F0BEFD80F03B814800400DAD
:1032700000F11C0211D0002A0FDD40F2FF708242E3
:1032800005DB09F0004040EA0B01002013E00C9838
:10329000014041EA025140460DE029F00043002080
:1032A00028F00002834208BF82420FBF40461C2222
:1032B000404600F0AFFD8046894600F049FEFF1F02
:1032C000002F044609DD00F061FE02460B46404631
:1032D000494600F06DFE80468946F01D072104E056
:1032E00004F00F0200F8012D2411002C01DD491E0D
:1032F000F6D5491E5CBF002200F8012DF9D5ECE09F
:103300000020194602AA0A4400E05B1E12F8014997
:10331000491E8442F9D00F2804D10DF10900425C06
:10332000521C4254002904D50198001D02AE5B1CBA
:103330000190591E12D49DF838007218A0F13A0776
:10334000147804F130085FFA88F43A2CA8BFB84426
:10335000491E02F80189F3D58DF83800286B002842
:1033600040F1B080591E2963ACE040464946002236
:10337000002300F01FFD019938BF89F0004947F292
:1033800097504143694A91FBF2F20192D2F1070250
:1033900004DD40464946FFF79AFE0AE0524200200B
:1033A0006349FFF794FE02460B464046494600F04B
:1033B00071FE8046662C286BDFF878B106BF019F4E
:1033C0000A3706273F18142FC8BF142730208DF85E
:1033D000080089460DF1090000E03046002F34DD79
:1033E00006464046494600F079FF01460A4606F186
:1033F000080304200A26B2FBF6F606EB860EA2EBC3
:103400004E02303203F8012C0A22B6FBF2F202EB34
:10341000820EA6EB4E063036401E03F8026DE9D14F
:10342000083F002F03F10806D7DD084600F06AFFC9
:1034300002460B464046494600F0BAFD00225B4674
:1034400000F0AEFB80468946CBE70DF10901401A3A
:103450000DF1090604E00199491E401E0191761CF8
:1034600031783029F7D0662C02D10199491C03E04C
:10347000652C0CBF012100212B6BCB189842B8BFE3
:10348000431E002B1ED4834204DAF05C3528A8BF0B
:10349000392000DA30201946721E02EB010800E0E4
:1034A0005B1E18F80199491E8145F9D0392802D1CF
:1034B000705C401C7054002904D50198401C1646CD
:1034C0005B1C0190019800B200901BB29DF838106F
:1034D0003246284600F034F82EE0C61D002F3FF794
:1034E000BDAE30460DF10901401A009903468842ED
:1034F000C8BF0B46002B0DF109063FF52FAF8342E5
:10350000BFF6FEAE0DF10900C15C07297FF7F8AEEA
:103510000F20F6E6CBCCCC0C0000244002FCFFFFD1
:10352000FFFF0F800000E03F0000F07FA086010059
:103530000000F03F84D797410FB0BDE8F08F000046
:103540002DE9FC43054683B01F46D5F83080002F97
:10355000164602DC5FF00107B9A6894649F0200053
:10356000BDF93040662808BF641C17D0672840F0BA
:10357000888014F1040FC0F28A80444580F287806D
:1035800095F83800641C010702D44745B8BFB84617
:1035900020B2B8EB000848BF4FF000080FFA84F9DA
:1035A000E868A969B9F1000F27DC4A1C30234354AD
:1035B000B8F1000F03DC95F83800010703D5E9687E
:1035C0002E208854521C18EB090FB8BFC8F1000414
:1035D00024B260426862A044B845AA61B8BF4746B9
:1035E000EB68A8693FB2EF613A4631461844FFF7ED
:1035F000A5F9A8EB0700A862C5E022B297420844EB
:1036000019DA3A463146FFF799F9A8693818A9EB53
:103610000707B8F1000FA8616F6203DC95F8381056
:103620000A0705D5EA682E211154E869401CE861B3
:10363000C5F82880A7E03146FFF780F9A8693F1B4D
:10364000B8F1000F484403DC95F838100A0703D599
:10365000EA682E211154401CA86138B28045EB68FD
:10366000A869B8BF47463AB206EB09011844FFF70C
:1036700065F9A9693FB27918A8EB0707A9616F62DC
:1036800081E0B9F1610F16D14FF0700918E047459C
:1036900004DA95F838100A0758BFB846B8F101089F
:1036A00048BF4FF00008B9F1670F14BF4FF045094C
:1036B0004FF0650904E0B9F1410F08BF4FF0500920
:1036C000A969EB68481CA861B8F1000F16F8012B36
:1036D0005A5403DC95F838100A0719D5EA68431CD8
:1036E000AB612E211154B8F1000F11DD7F1E38B2ED
:1036F00031468045EE68B8BF47463AB2F018FFF74A
:103700001DF9A8693FB23818A861A8EB07006862E4
:10371000E868A9690844002C80F8009003D42B22A3
:103720004270811C03E02D2141706442811C002005
:103730006A460AE023460A2493FBF4F404EB840669
:10374000A3EB460302F8013B401C24B2002CF1DC41
:10375000012806DC49F02002652A04BF302201F866
:10376000012B48B9302001F8010B07E0401E1DF87D
:103770000030303301F8013B0028F7DCEA68A86923
:103780001044091AE96195F8380000F01400102877
:103790000DD16A69A969686A8A18E9698218A86AF4
:1037A0008A188218686B8242BCBF821A2A6205B0EE
:1037B000BDE8F083F8B505460E4617461C460020C6
:1037C00074B117F8011BB068A847B06030B1F06A57
:1037D000401CF0620020641EF3D1F2BD4FF0FF30B8
:1037E000F2BD00007072696E74665F733A20256ED8
:1037F00020646973616C6C6F776564007072696EC8
:1038000074663A2062616420256E20617267756D6E
:10381000656E74007072696E74665F733A206261DF
:103820006420257320617267756D656E74000000F9
:103830006E616E004E414E00696E6600494E460054
:10384000300000000278C9B28A421AB11CBF10F8D9
:10385000012FF9E718BF00207047000080B500B9BC
:1038600006A005490B681BB122220021984701E000
:1038700000F055FD222002BD3C250020636F6E73D1
:10388000747261696E742068616E646C65723A204E
:10389000626164206D6573736167650000F1010307
:1038A000810704D010F8011B820781B1FAD10268A8
:1038B000A2F10131914311F0803104BF50F8042F7F
:1038C000F6E709BAB1FA81F100EBD100401CC01A49
:1038D00070470000C9B2830706D0521E22D310F8E9
:1038E000013B9942F7D11FE0083A13D302F10402D9
:1038F00041EA012141EA014150F8043B121F21BF76
:103900004B40A3F1013C2CEA030C1CF0803FF3D0A8
:10391000C9B2001F083210F8013B521E28BF91EABD
:10392000030FF8D818BF0120401E704713F0004C59
:1039300003D55B42524263F100039CEA210C00F084
:10394000178010B5644603D34942404261F100013B
:1039500000F00EF8640004D34942404261F10001D6
:10396000244203D55B42524263F1000310BD0000C4
:10397000BBBBE1B1B2F5803F80F07E80022A1ED948
:103980008C46B1FBF2F102FB11C31B0443EA104366
:10399000B3FBF2FC02FB1C3380B240EA0343B3FBEF
:1039A000F2F002FB103240EA0C4000237047022A7A
:1039B00005D98446B0FBF2F002FB10C270474AB151
:1039C00005D100F0010249085FEA3000704700228B
:1039D0000023704700F0A6BC0B000200002100206D
:1039E0007047904271EB030CF6D3B3F5803F2FD2B2
:1039F000F0B5B3FA83F7B1FA81F4A7F10F0E3D1BCE
:103A00005340CEF1200602FA0EF2F3415340B5F1D5
:103A10000F0746D80F3C2C444140C4F12006A0407B
:103A2000F1414140B1FBF3F603FB1611A2FB064541
:103A3000001BA94102D2761E8018594180EA01027A
:103A400021FA0EF362FA0EF200215A403046F0BD20
:103A500030B4B1FBF3FC03FB1C11A2FB0C45001BB3
:103A6000A94103D2ACF1010C8018594130BC024687
:103A70000B46604600217047B2F1807F65D3F0B5F8
:103A8000B2FA82F7B1FA81F4C7F10F063D1B22FAB0
:103A900006F307F1110EF24120355A40B5F10F0738
:103AA000B8D94140C4F12006A040F1414140B1FBEA
:103AB000F3FC03FB1C11A2FB0C45001BA94103D224
:103AC000BCF1010C801859410F2F12D30F3FC903CD
:103AD00041EA5041B1FBF3F603FB1611A2FB064588
:103AE000D4EBC030A94102D2761E8018594146EA73
:103AF000CC3C07B34140C7F12006B840F1414140FA
:103B0000B1FBF3F603FB1611A2FB0645001BA9410E
:103B100002D2761E8018594180EA010221FA0EF382
:103B2000C7F1200462FA0EF20CFA07F05A402CFAA0
:103B300004F13043F0BD80EA010221FA0EF30021C6
:103B400062FA0EF260465A40F0BD8C46B1FBF2F1CB
:103B500002FB11C31B0243EA1063B3FBF2FC02FB3E
:103B60001C331B024CEA002043EA1063B3FBF2FC57
:103B700002FB1C331B024CEA002043EA1063B3FB38
:103B8000F2FC02FB1C331B024CEA002043EA1063E8
:103B9000B3FBF2FC02FB1C324CEA0020002370470E
:103BA000B0B581EA030C0CF0004C40F2FF7515EA49
:103BB00011541DBF15EA1357AC42AF4239E0E41966
:103BC00023EA455343F48013C90241F0004141EA1E
:103BD000505EC7021100A7FB020200284FF0000050
:103BE000EEFB01204FF00001E3FB072118BF42F07C
:103BF0000102401800214941E3FB0E01A4F5806455
:103C00000F0302D252004041494154F101046CDDDE
:103C1000470872F1004250F1000051EB0451A1F548
:103C200080115CBF41EA0C01B0BD4CEA0551002097
:103C3000B0BD05EA1357AC4214BFAF4241E050EAB1
:103C4000410E1CBF52EA430E02E061460020B0BDA7
:103C500024423C441BD15FEA070EF6D0090302BFA1
:103C600001460020AEF1140EB1FA81F7AEEB070465
:103C700001FA07FE0C37C7F1200100FA07F7C84028
:103C80004EEA000E23EA455343F48013A2E733F0D3
:103C90000043B3FA83F704BFB2FA82FE77440B3FC6
:103CA000E41BB7F1200E2FBF02FA0EF3BB40C7F1A1
:103CB000200E22FA0EFE38BF43EA0E03BA40641CFF
:103CC00082E750EA410E14BF52EA430E6FF0000142
:103CD0004FF4001717EB430F8ABF194617EB410F3C
:103CE000B5E74CEA05510020B0BDD4F10104B4F1B0
:103CF00020070FDAC4F12007520828BF42F0010262
:103D000010FA07F501FA07F7E1BF2A43E04038430C
:103D1000E1400FE0352C98DCC7F1200452EA400264
:103D200020FA07F218BF42F0010231FA07F0A14071
:103D30000A43002172F1004250F1000051EB0C01E6
:103D4000B0BD000010B5144600F002F8226010BDAE
:103D5000C1F30A5343B14A0012F5001F28D2A3F25F
:103D6000FE32A1EB0251704750EA410C20D001F025
:103D7000004C31EA0C01B1FA81F204BFB0FA80F3D1
:103D8000D2180B3AB2F120032CBF00FA03F1914094
:103D900041EA0C013EBFC2F1200C20FA0CF319439A
:103DA0009040524240F2FD33D21A01EB035170476A
:103DB000002270474FF4001C1CEB410F94BF1CEB1A
:103DC000430F09E041EA030C50EA4C0C52EA0C0C98
:103DD00003D2994208BF9042704714BF8B4282427F
:103DE000704700004FF4001C1CEB410F94BF1CEB0C
:103DF000430F09E041EA030C50EA4C0C52EA0C0C68
:103E000003D28B4208BF8242704714BF994290424E
:103E100070470000124254D440F2FF7C1CEA115358
:103E20000FD0634531D09B1863453CBF01EB025175
:103E3000704701F0004141EA0C510020AFF30080CF
:103E4000704750EA410320D001F0004C91EA0C0188
:103E50001CD0B1FA81F30B3B9A420DD9D21A99408A
:103E600051EA0C01C3F1200C20FA0CFC614498408B
:103E7000531C40F2FF7CD7E7914041EA0C01C2F1AC
:103E8000200C20FA0CF3194390407047B0FA80F3ED
:103E90001533202BE0D3202AEED3203A203B9A4240
:103EA00009D9D21A00FA03F141EA0C010020531C8F
:103EB00040F2FF7CB8E700FA02F141EA0C01002071
:103EC0007047524240F2FF7C1CEA11530DD063450B
:103ED000DBD0B2EB030C3CBFA1EB025170470CF1FD
:103EE000010221EA035141F4801150EA410CCCD087
:103EF00001F0004C352A27DC30B481EA0C01B2F124
:103F0000200309DAC2F12003044601FA03F5D04088
:103F10002843D1409C400CE0C3F12002450020FA28
:103F200003F418BF44F0010421FA03F091400C435C
:103F3000002174F1004550F1000051EB0C012442C6
:103F400030BC7FF47BAF70476146002076E700000D
:103F5000C1F30A5340F2FE329B1A14DDD3F1200361
:103F60004FEAE17208DDC90241EA505141F00040D8
:103F7000D84080185040704703F2E13010B1D2436E
:103F800082F000407047002070470000C11768B100
:103F90004840401AB0FA80F29040D21CC907C2F5DE
:103FA000846241EA025202EBD021400570470000D2
:103FB00070B44FF0004591EA030F40F1B5816B40BA
:103FC000841A71EB030603D2001BB141121973412D
:103FD0004FF4001C1CEB410F34BF7CEB430442E068
:103FE0000C0DA4EB1356352E4FDC45EAC323DB0A38
:103FF00045EAC121C912B6F120050DDD63FA05F6C7
:10400000EB4086EA0305124218BF45F00105C018CF
:1040100051F100010CD213E062FA06F5F24055406E
:10402000F3415A40B340F3405A408018594107D3F6
:1040300049085FEA30005FEA350528BF45F0010511
:1040400001F58011420875F1004250F1000041EB8A
:1040500004514E0016F5001F70BC38BF7047002099
:10406000090D090570471CEB410F10D252EA4306B7
:104070000BD0BCEB410F05D80C0DAB43661E342EA4
:10408000B6DD02E0AB438018594170BC704770BC8C
:1040900070470000F0B540F2FF7581EA030C0CF0A8
:1040A000004C15EA11541DBF15EA1357AC42AF423C
:1040B000E5E0BC41C1F31301C3F31303801A994136
:1040C00043F4801304D2641E4000494180185941D2
:1040D000C90241EA5051B1FBF3F603FB1611A2FBF2
:1040E0000675D7EBC020A94102D2761E801859412F
:1040F000C90241EA5051B1FBF3FE03FB1E11A2FBC2
:104100000E75D7EBC020A94103D2AEF1010E801885
:104110005941890241EA9051760546EA8E2EB1FB5B
:10412000F3F603FB1611A2FB0675D7EB8020A9411D
:1041300002D2761E80185941C90241EA50514EEA16
:10414000060EB1FBF3F603FB1611A2FB0675D7EBC7
:10415000C020A94102D2761E80185941C90241EA05
:104160005051B1FBF3F703FB1711A2FB0735D3EB5B
:10417000C020A94167F100070CBF004247F00107CA
:1041800066F3D5274FEA1E31B80814F5806412DDB6
:10419000BD0775F1004250EB0E5051EB045111F583
:1041A000801F5CBF41EA0C01F0BD4CF07F6141F023
:1041B000E0410020F0BDBD076D0840EA0E5041F41B
:1041C0008011D4F10104B4F120060ADAC4F120060A
:1041D0000200E04001FA06F3E1401843B240154303
:1041E0000EE0342C13DCC6F1200445EA40056D08CE
:1041F00020FA06F2154321FA06F0A1400D430021F2
:1042000075F1004250F1000051EB0C01F0BD0020AF
:104210005FEA0C01F0BDCFB992185B41B3FA83F7A6
:1042200004BFB2FA82F6BF190B3FB7F120062FBFC9
:1042300002FA06F3BB40C7F1200622FA06F638BFA1
:104240003343BA401CB1E419641E33E77F4231F0B6
:104250000041B1FA81F404BFB0FA80F6A4190B3C16
:10426000B4F120062FBF00FA06F1A140C4F12006E8
:1042700020FA06F638BF3143A0403C1B1AE7AC4297
:104280001ABF05EA1357AF4212E050EA41061CBFBD
:1042900052EA4306BFE750EA4107304661461CBF79
:1042A00041EA0551F0BD52EA430C08BFC143F0BDDD
:1042B00000204FF4001616EB410F98BF16EB430F8A
:1042C00008BF16EB410F24BFC14305E016EB430FB7
:1042D0000CBF61464CEA0551F0BD0000400D491885
:1042E00040EA81200CD2490DA1F58061491C40F0C3
:1042F000004005DBD1F11F0154BFC840C017704713
:1043000000207047014648B1B0FA80F18840C91CCE
:10431000C1F58461090501EBD021400570470120FA
:1043200000F0B8B870470000841A71EB030604D29D
:104330006E40001BB141121973414FF4001C1CEB7D
:10434000410F34BF7CEB430683E00C0DA4EB135606
:10435000362E00F37C80012E45EAC32341DC43EA7C
:10436000525312BFD20292025B08240545EAC121D2
:1043700041EA5051D2EBC020994125D407D1B0FA7F
:1043800080F610FA06F162D00020203608E0B1FA7B
:1043900081F6B140C6F1200220FA02F21143B0408A
:1043A0004FEAF474B4EB465434F001064FEA740457
:1043B0000AD8D6F50016760D04F00044F04061FAF4
:1043C00006F25040F1404840C00A40EA415021F016
:1043D000004128BF5FEA500550F1000044EBD121B5
:1043E00035E0DB0A45EAC121C90AB6F120050EDD38
:1043F00042EA0242120CC5F1200603FA06F6EB402F
:1044000042EA06056D42984161F100010DE062FA51
:1044100006F5F240554063FA06FC82EA0C02F340CE
:104420005A406D42904161EB030111F4801F05D1A8
:10443000641E620502D06D004041494121F48011A3
:10444000430875F1004350F1000041EB045170BC8A
:1044500070471CEB410F15D223F0004352EA43068C
:104460000BD04FEA4C0CBCEB410F04D80C0D661E70
:10447000342EB7DDEBE7801A994150EA410608BFB8
:104480000021E4E708BF1CEB430F28BF6FF00001D9
:10449000DDE7000080B500F007F8024A110018209F
:1044A000ABBEFBE72600020080B500F054F8020026
:1044B0000023DB431068984204D011000220ABBEF9
:1044C000002010605068984204D0111D0220ABBE3D
:1044D0000020506001BD0000F0B583B0040000F082
:1044E0003AF8A10047183D680026F643B54216D1B8
:1044F00000F01AF83D68B5420FD100BF09A0009046
:10450000002C01D1002000E0042001900320029043
:1045100069460120ABBE05003D6000F014F828009C
:1045200003B0F0BD3A7474000C480121BFF35F8FF3
:10453000D0E84F3FC0E8421F002AF9D1BFF35F8F98
:10454000002BF3D170470548BFF35F8F0021017046
:10455000BFF35F8F7047024870470000512500206D
:104560000002002030B404000D0013005A1E002B7E
:1045700004D02B7823706D1C641CF6E730BC7047A8
:1045800010B4040013005A1E002B02D02170641CCA
:10459000F8E710BC704770B4040025000E0000203E
:1045A00013005A1E002B07D028783378C31A761CC4
:1045B0006D1C1800002BF3D070BC70470278002AE5
:1045C00004D002788A4201D0401CF7E70078704797
:1045D00070B504002079002822D0E06A050001238C
:1045E0002A0014F13001607801F034FB002801D07A
:1045F000012016E000202071206A281AA169884253
:104600000ED2E0780600022E0AD3A06945190123D4
:104610002A0014F13001607801F01CFB761EF2E7ED
:10462000002070BD38B504000D00E06A854212D04C
:104630002000FFF7CDFF002801D001200CE001236E
:104640002A0014F13001607801F0D3FA002801D07B
:10465000012001E0E562002032BD38B504002000F1
:10466000FFF7B6FF05002800C0B200285ED1207811
:10467000032852D1607901284FD16289002114F1B9
:104680003000FFF77DFF552084F82E02AA2084F821
:104690002F02522084F83000522084F8310061202B
:1046A00084F83200412084F83300722084F8140228
:1046B000722084F81502412084F81602612084F8E3
:1046C0001702206984F81802206980B2000A84F871
:1046D00019022069000C84F81A022069000E84F87F
:1046E0001B02E06884F81C02E06880B2000A84F8CB
:1046F0001D02E068000C84F81E02E068000E84F8D9
:104700001F02E069401CE0620123E26A14F13001FB
:10471000607801F09FFA002060710022002160782B
:1047200001F0C9FA002801D0012005002800C0B21C
:1047300032BD0200891E5069801E814201D30020D3
:1047400004E09378906A03FB010108007047F8B514
:1047500004000D00022D02D36069854201D30120BF
:104760007DE02078012804D075D3032850D034D3BD
:1047700071E0280010EB50000700216A6089B7FB48
:10478000F0F041182000FFF74DFF002865D1608947
:10479000B7FBF0F100FB1170204490F830000600E8
:1047A0007F1C216A6089B7FBF0F041182000FFF7F9
:1047B00039FF002851D16089B7FBF0F100FB11707F
:1047C000204490F8300056EA0026E80701D5360963
:1047D00001E03605360D300041E0216A6089022291
:1047E00090FBF2F0B5FBF0F041182000FFF71AFF44
:1047F000002832D168006189B0FBF1F201FB1200A0
:10480000204430304178007850EA012080B226E020
:10481000216A6089042290FBF2F0B5FBF0F04118A8
:104820002000FFF7FFFE002817D1A8006189B0FB28
:10483000F1F201FB1200204410F13001CA788878AF
:10484000000450EA02604A7850EA022009780843DE
:1048500020F0704003E0012001E05FF0FF30F2BD86
:104860002DE9F84304000D001600022D02D3606903
:10487000854202D35FF00209A1E02078012805D02B
:10488000C0F0998003286CD04CD394E0280010EB42
:1048900050008046216A6089B8FBF0F04118200082
:1048A000FFF7C0FE81464846C0B2002840F0858030
:1048B0006089B8FBF0F100FB118020443030070024
:1048C000E80705D5387810F00F0050EA061000E030
:1048D0003000387018F1010801202071216A6089C8
:1048E000B8FBF0F041182000FFF79CFE81464846D7
:1048F000C0B2002861D16089B8FBF0F100FB1180E3
:10490000204430300700E80702D53000000907E0F6
:10491000387810F0F0003100090A11F00F01084357
:1049200038704AE0216A6089022290FBF2F0B5FB00
:10493000F0F041182000FFF775FE81464846C0B2EE
:1049400000283AD168006189B0FBF1F201FB120046
:104950002044303007003E70300080B2000A78708A
:104960002BE0216A6089042290FBF2F0B5FBF0F0A5
:1049700041182000FFF756FE81464846C0B2002885
:104980001BD1A8006189B0FBF1F201FB12002044A9
:1049900030300700F878000610F0704006433E7093
:1049A000300080B2000A78703000000CB87030001F
:1049B000000EF87001E05FF0020901202071484606
:1049C000C0B2BDE8F283F8B505000E00022E02D396
:1049D0006869864201D302272CE000276869864275
:1049E00028D231002800FFF7B2FE0400002C21D0AD
:1049F000012C02D1022007001CE014F1010F02D1AA
:104A00000120070016E0002231002800FFF728FFF0
:104A100007003800C0B200280CD1286910F1010F3E
:104A200006D02869401C2861687950F0010068713F
:104A30002600D3E73800C0B2F2BD2DE9F8430700E5
:104A40000C00002C08D1FE68002E02D07869864246
:104A500016D30120060013E021003800FFF777FE8F
:104A60000500022D01D2012058E015F1010F01D1FE
:104A7000280053E07869854201D228004EE02600E4
:104A8000B04618F101087869804505D302208046B8
:104A9000464501D2002041E041463800FFF757FE6D
:104AA0000500002D0BD17FF0704241463800FFF722
:104AB000D7FE81464846C0B2002813D10AE015F15E
:104AC000010F01D0012D01D1280027E0B045D8D138
:104AD000002023E0002C05D0424621003800FFF7DB
:104AE000BFFE81464846C0B200280DD1C7F80C80F1
:104AF000386910F1010F10D03869401E386178799B
:104B000050F00100787108E04846C0B2012802D197
:104B10005FF0FF3801E05FF001084046BDE8F28336
:104B200030B403000A00586A001D1C686489B2FB97
:104B3000F4F41D68AD78B4FBF5F405682900051D93
:104B4000002901D1002008E08C4203D22868041912
:104B5000200002E0641A281DEFE730BC7047F8B56A
:104B600005000E00EE80AC68012C03D02868406977
:104B7000844201D3022054E0002C06D1286800783A
:104B8000032802D12868406A0400002C08D1286854
:104B90000089864201D3022043E02868416A23E06D
:104BA00028684089202190FBF1F1286880784143F2
:104BB0000F00BE4213D321002868FFF7C8FD040090
:104BC00014F1010F01D101202BE0022C03D328683E
:104BD0004069844201D3022023E0F61BE9E721006B
:104BE0002868FFF7A6FD0100EC60002901D1022032
:104BF00017E028684089202290FBF2F0B6FBF0F025
:104C00004018286128684089202290FBF2F0B6FB0A
:104C1000F0F200FB126040012A68104430306861F5
:104C20000020F2BD2DE9F04106000C00F7887F1C42
:104C3000380402D03069002801D1042093E03068A4
:104C40004089202190FBF1F0B7FBF0F100FB1170DF
:104C5000002878D13069401C3061F068002805D107
:104C60003068008987426ED304207CE03068408938
:104C7000202190FBF1F0B7FBF0F031688978491EF4
:104C8000084260D1F1683068FFF761FD0500022D30
:104C900001D2022067E015F1010F01D1012062E08D
:104CA00030684069854248D3002C01D104205AE085
:104CB000F1683068FFF7C1FE0500002D01D1072023
:104CC00051E0012D01D102204DE015F1010F01D17C
:104CD000012048E03068FFF77BFC002801D001206C
:104CE00041E030684289002130683030FFF748FCED
:104CF00029003068FFF71DFD3168C8625FF00008C9
:104D000030688078804511D20120316808713068A0
:104D1000FFF75EFC002801D0012024E03068C06A63
:104D2000401C3168C86218F10108E9E73068C06AC0
:104D3000B0EB08083068C0F82C80F56029003068B6
:104D4000FFF7F7FC3061F78030684089202190FB45
:104D5000F1F0B7FBF0F100FB11704001316808443D
:104D6000303070610020BDE8F081F8B504000D001E
:104D700000212000FFF7F3FE07003800C0B2002832
:104D800021D10020060021692068FFF74BFC0700B5
:104D90003800C0B2002816D160690078E52803D039
:104DA00060690078002803D1761CAE4202D10AE087
:104DB0000020060001212000FFF734FF0700380023
:104DC000C0B20028DFD03800C0B2042801D10720CB
:104DD00007003800C0B2F2BD10B40200CB7E887E5E
:104DE00050EA032080B21378032B06D14B7D0C7D53
:104DF00054EA0324A4B250EA044010BC7047817600
:104E00000A0092B2120AC2760A00120C02750A0057
:104E1000120C92B2120A42757047F8B504000021D4
:104E20002000FFF79CFE07003800C0B2002802D027
:104E30003800C0B228E021692068FFF7F3FB0700C3
:104E40003800C0B200281DD1606906003078050026
:104E50002800C0B2002802D10420070012E0F07A36
:104E6000000706D40B22A1693000FFF794FB00284D
:104E700008D000212000FFF7D5FE07003800C0B29F
:104E80000028D8D03800C0B2F2BD38B504000121E6
:104E90002000FFF76AFF05002800C0B2002815D1E6
:104EA00021692068FFF7BEFB05002800C0B200287A
:104EB0000CD1202200216069FFF762FB0B22A1695F
:104EC0006069FFF74FFB0120216808712800C0B21C
:104ED00032BD2DE9F34F81B00298066830782F2853
:104EE00002D030785C2801D1761CF7E701988769F9
:104EF0000B2220213800FFF743FB5FF0000A5446E5
:104F0000E4B2A3465FF0080816F80B0081461BF1D7
:104F1000010B4846C0B2212807DB4846C0B22F2803
:104F200003D04846C0B25C2809D106EB0B000299B9
:104F300008605FFA89F9B9F1210F6CDA69E0484637
:104F4000C0B22E2801D044450FD3B8F1080F03D1C9
:104F50004846C0B22E2801D006207DE0082004007B
:104F60000B2080465FEA8A0ACEE74846C0B2802816
:104F700001DB5AF0030A4846C0B2812824DB4846C8
:104F8000C0B2FF2820D016F80B0005001BF1010B62
:104F90002800C0B2402803DB2800C0B27F2807DB0E
:104FA0002800C0B2802807DB2800C0B2FF2803D049
:104FB000B8F10100844201D306204DE007F80490C7
:104FC000641C3D55641C9FE74946C9B2DFF8800662
:104FD000FFF7F4FA002801D006203DE04846C0B2B1
:104FE000412806DB4846C0B25B2802DA5AF0020AC2
:104FF0000BE04846C0B2612807DB4846C0B27B28B8
:1050000003DA5AF0010AB9F1200907F80490641C88
:105010007AE7042100E00021002C01D106201BE0EA
:105020003878E52801D105203870B8F1080F01D192
:105030005FEA8A0A5046C0B210F00300012801D18D
:1050400051F010015046C0B210F00C00042801D1FC
:1050500051F00801F9720020BDE8FE8FF2B504009E
:10506000009800782F2803D0009800785C2802D19F
:105070000098401C00900020A06000980078202834
:1050800007D200212000FFF76AFD050000206061C3
:105090002CE069462000FFF71CFF05002800C0B285
:1050A000002823D12000FFF7B8FE0500A069C07AD0
:1050B00007002800C0B2002808D02800C0B2042889
:1050C00003D1780701D4052005000FE078070DD43F
:1050D00060690600F07AC00602D40520050005E0EC
:1050E00031002068FFF778FEA060D2E72800C0B248
:1050F000F2BD10B402005FF0FF30116800291CD02F
:1051000011680B001978212904D319783A2901D0A4
:105110005B1CF7E719783A290DD111680C78303CFF
:10512000491C0A2C06D2994204D1032C02D2200039
:105130005B1C136001E00021080010BC704738B50B
:1051400004000D00002020715FF0FF30E0622900B4
:105150002000FFF767FA002801D003202BE094F825
:105160002F0294F82E1251EA002189B24AF65520F6
:10517000814201D002201EE0DFF8D81494F86800C4
:1051800094F86720120252EA004294F86600024343
:105190008A4201D100200EE094F8840094F8832024
:1051A000120252EA004294F8820002438A4201D17C
:1051B000002000E0012032BD2DE9F74F86B000202D
:1051C000069908600798FFF794FF0190019800285E
:1051D00001D50B20ECE1DFF88004019950F8215053
:1051E000002D01D10C20E3E1069805602878002805
:1051F0000FD0687800F0FAFC0400E00709D49DF8AD
:105200002000002803D0600701D50A20D0E100204B
:10521000CEE10020287001986870687800F0D2FC18
:105220008DF800009DF80000C00701D50320BFE104
:105230009DF82000002805D09DF80000400701D50A
:105240000A20B5E115F10A020221687800F033FD69
:10525000002808D16889B0F5007F04DB688941F235
:105260000101884201DB0120A2E100242100280085
:10527000FFF765FF80464046C0B2012832D10021C9
:10528000042917D20801284410F5F7721079002874
:105290000AD0D07A937A1B0453EA0063507A53EA17
:1052A0000023107A034300E0002302A840F82130D5
:1052B000491CE5E70026002E00D0761E02A850F813
:1052C00026000400002C04D021002800FFF737FF3F
:1052D00000E0022080464046C0B2002802D0761C82
:1052E000042EEBD34046C0B2032801D101205FE178
:1052F0004046C0B2002801D00D2059E195F83C008D
:1053000095F83B1051EA0021688989B2814201D0A9
:105310000D204DE195F8470095F8461051EA00211F
:1053200089B200290ED195F8570095F8562012043D
:1053300052EA006295F8550052EA002295F85400AE
:1053400002431100A96195F84000E870E87801284F
:1053500004D0E878022801D00D2029E1E878414303
:10536000029195F83D00A870A878002804D0A8788C
:10537000A978491E084201D00D2019E195F8420094
:1053800095F8411051EA0021298128896989202254
:1053900091FBF2F190FBF1F201FB1200002801D029
:1053A0000D2005E195F8440095F8436056EA002683
:1053B000B6B2002E0ED195F8530095F8521009049C
:1053C00051EA006195F8510051EA002195F850002A
:1053D00001430E0095F83F0095F83E9059EA0029E8
:1053E000484680B2002801D10D20E1E0029810FA71
:1053F00089FA6889202190FBF1F0298991FBF0F06E
:1054000010EB0A0A564501D20D20D1E0B6EB0A0096
:10541000A978B0FBF1F7002F01D10D20C8E05FF0B3
:10542000010B40F6F670874201D3022083464FF607
:10543000F670874201D303208346B81C6861EC6193
:1054400014FA89F028621AEB0400A8625846C0B228
:10545000032817D12889002801D00D20A8E095F84D
:105460005F0095F85E10090451EA006195F85D004F
:1054700051EA002195F85C000143696268695FEABE
:10548000800819E02889002801D10D2090E0296AC0
:105490000298411869625846C0B2022803D168696F
:1054A0005FEA400808E069690320414395F81480E9
:1054B00018F0010818EB51086889401E10EB08002D
:1054C0006989B0FBF1F0A969814201D20D206FE03A
:1054D0005FF0FF3028612869E860802068715846D5
:1054E000C0B203285BD195F8610095F8601051EACD
:1054F000002189B2012952D1611C2800FFF792F8DE
:1055000000284CD10020687195F82F0295F82E12D2
:1055100051EA00214AF6552089B281423FD195F8DF
:10552000330095F83210090451EA006195F8310012
:1055300051EA002195F830000143484881422ED1BC
:1055400095F8170295F81612090451EA006195F8CA
:10555000150251EA002195F81402014340488142A6
:105560001DD195F81B0295F81A12090451EA006141
:1055700095F8190251EA002195F8180201432961B2
:1055800095F81F0295F81E12090451EA006195F87A
:105590001D0251EA002195F81C020143E96085F8DB
:1055A00000B030480188491C01800088E880002054
:1055B00009B0BDE8F08F38B505002C00002C0BD0E9
:1055C0002068002808D020680078002804D02068CF
:1055D000C088A188884201D0092008E0206840786E
:1055E00000F004FBC00701D5032000E0002032BD1D
:1055F00073B582B01500039800906846FFF779FDF7
:105600000600002E01D50B201EE0134951F826405C
:10561000002C01D0002020700298002802D0002029
:10562000029A1070029841F826000298002803D0D0
:105630002800C0B2012801D0002005E0002203A903
:1056400002A8FFF7B9FDC0B204B070BD00000000B1
:1056500058690008464154002425002052526141F7
:1056600072724161422500202DE9F3478AB004009F
:105670009046002C01D10920C7E00020206018F0DE
:105680001F0818F0FE020BA96846FFF795FD0700FA
:105690003800C0B2002840F0B68007A806900B99E9
:1056A0006846FFF7DBFC0700059805003800C0B22C
:1056B000002803D1002D01D10620070018F01C0F8F
:1056C0005FD03800C0B200280CD03800C0B2042827
:1056D00003D16846FFF7D9FB070058F00808059882
:1056E00005000BE0E87A10F0110F02D00720070048
:1056F00004E05FEA487001D5082007003800C0B216
:10570000002850D15FEA08704DD500F005FB8146B6
:1057100085F80E90484680B2000AE8734846000CAF
:1057200028744846000E68740020E872002028772C
:10573000002068770020A8770020E87729000098EB
:10574000FFF74AFB060000212800FFF758FB012065
:1057500000990871002E26D00098D0F82CA03100B6
:105760000098FFF730F907003800C0B200281AD1BE
:10577000701E0099C86051460098FEF753FF07005D
:1057800011E03800C0B200280DD1E87AC00602D579
:105790000420070007E05FEA887004D5E87AC007B4
:1057A00001D5072007003800C0B2002808D15FEA01
:1057B000087001D558F020080098C06AE0612562A1
:1057C0003800C0B200281ED184F806800020E071A5
:1057D00029000098FFF700FB2061E87FA97F0904FA
:1057E00051EA0061687F51EA0021287F0143E160AE
:1057F0000020A0600020A06100206062009820606E
:105800002068C088A0803800C0B20CB0BDE8F08726
:105810002DE9F34F81B0824615001F00DDF8089096
:10582000002038605046FFF7C6FE8DF801009DF855
:105830000100002802D09DF8010049E19AF8070014
:10584000002802D09AF8070042E19AF80600800783
:1058500001D407203CE1DAF808002818DAF808102B
:10586000884201D200200500002D00F02081DAF8E6
:105870000800DAF800104989B0FBF1F201FB1200D0
:10588000002840F0E080DAF80800DAF800104989D2
:10589000B0FBF1F0DAF800108978491E08408DF865
:1058A00000009DF8000000283BD1DAF8080000282D
:1058B0000BD1DAF810000400002C18D10021DAF81E
:1058C0000000FFF7BAF8040011E0DAF8240000281D
:1058D00006D0DAF808105046FFF722F9040006E077
:1058E000DAF81410DAF80000FFF7A7F80400002C2B
:1058F00000F0DD80012C04D102208AF8070002208C
:10590000E6E014F1010F04D101208AF8070001201C
:10591000DEE0CAF81440DAF81000002801D1CAF815
:1059200010409AF80600400616D50123DAF8182030
:105930001AF12801DAF80000407800F08BF900280D
:1059400004D001208AF807000120C1E09AF806007F
:1059500010F0BF008AF80600DAF81410DAF8000038
:10596000FEF7E7FE0100002904D102208AF80700B3
:105970000220ADE09DF8000051FA80FBDAF800004B
:105980004089B5FBF0F00600002E40D0DAF80000A8
:1059900080789DF8001056FA81F1884206D2DAF834
:1059A000000081789DF80000091A0E0033005A4665
:1059B0004946DAF80000407800F04CF9002804D09D
:1059C00001208AF80700012082E0DAF81800B0EB25
:1059D0000B00B04215D2DAF800004289DAF818104C
:1059E000B1EB0B01DAF800004089414349441AF158
:1059F0002800FEF7B7FD9AF8060010F0BF008AF8FD
:105A00000600DAF8000040897043804641E0DAF889
:105A10001800584515D0DAF80800DAF80C1088425A
:105A20000FD201235A461AF12801DAF80000407813
:105A300000F0DFF8002804D001208AF807000120D8
:105A400046E0CAF818B0DAF80800DAF80010498918
:105A5000DAF800205289121AB0FBF1F001FB0021A4
:105A60008846454500D2A846DAF80800DAF8001062
:105A70004B8942464946B0FBF3FC03FB1C005044F3
:105A80002830FEF76FFD9AF8060050F040008AF8C3
:105A90000600C144DAF8080018EB0000CAF8080054
:105AA000386818EB00003860B5EB0805DCE6DAF87A
:105AB0000C00DAF80810884203D2DAF80800CAF8B5
:105AC0000C009AF8060050F020008AF8060000202A
:105AD000BDE8FE8FF8B504002000FFF76CFD07005D
